:0400000002005B326D
:01000B0032C2
:0100130032BA
:01001B0032B2
:030023000207A62B
:01002B0032A2
:01003300329A
:01003B003292
:03004300020D5A51
:01004B003282
:030053000208AFF1
:1000B400C201750B00750C00D202D20375080075DD
:0400C4000938D20025
:03013E0002005666
:030056000202AAF9
:10014100AF82787AA607D20022900135E0FF24FC25
:10015100500122EF2F2F90015B730201670201A969
:100161000201C3020256900243E0FEA3E0FFC3EE88
:10017100940FEF94005001227F00EF9019FA93241D
:1001810000FEE43401FD8F037C000BBB00010CEB8E
:100191002435F582EC3401F583E0FC8E828D83F009
:1001A1000FBF0E0040D4D204900243E0FEA3E0FF53
:1001B100BE0105BF0002800122120BD77582210208
:1001C1000141900243E0FEA3E0FFBE0505BF01022D
:1001D100800122900136E0FF7E007D008D048E05B6
:1001E1008F067F00900137E0F8E4F9FAFBE8420757
:1001F100E94206EA4205EB42048D048E058F067F33
:1002010000900138E0F8E4F9FAFBE84207E9420618
:10021100EA4205EB42048D048E058F067F009001B2
:1002210039E0F8E4F9FAFBE84207E94206EA420557
:10023100EB420475423A754301E4F544F53E753FDE
:1002410001F540F5418F828E838DF0EC120C7B75A8
:1002510082210201411214CE75822102014112163E
:100261008120B51420B311C2AF7582001217998590
:100271000882850983120059758201121799121695
:10028100CB12177D12177912078B1208941213DF04
:100291001213A67582001216251214CE12049F1293
:1002A10006C9788186820206F712025F20B52530E1
:1002B1000222788206D206300B0F78827998C3E643
:1002C10097401178827600800B7882B60200400454
:1002D10078827600A2B5920220B31630031378819A
:1002E100E6C313F67881B601005004788176FFD217
:1002F10005A2B392031209F5120A89E551604F78FC
:1003010095E6602FD20178968607789606EF2480CD
:10031100F582E43400F583E0F5821213EF78951647
:100321007895E6700353D4F31214C2500612014AB1
:100331001213DF7897E670163000139000C0787AB8
:10034100E6F0C20075D50153D4FC7897760110050B
:10035100028007788186821206F7100602800A3031
:100361000B07788286821215451004030203D02000
:1003710001541209D8300B3C78838661088662905B
:10038100013575F0001215CD750A00E50A9019FACC
:10039100932400FFE43401FEE50A2435F582E434B8
:1003A10001F583E0FD8F828E83F0050A74F2250A40
:1003B10050D980127882E67005120B458008788248
:1003C100B60103120AC490010075F0001207101063
:1003D1008D030202AD7582CF1217B3050C300103F4
:1003E100020459787BE67070300B0F789D860D08FA
:1003F100860E08860F088610800A750D04E4F50E36
:10040100F50FF510AA0C7B007E007F00C3E50D9A65
:10041100E50E9BE50F9EE5109F503D750C0078831E
:1004210006B600020806300B2D7899860D08860E57
:1004310008860F088610788386020886037E007F6F
:1004410000C3EA950DEB950EEE950FEF9510400662
:100451007883E4F608F6D204050BE50B2485400306
:100461000202AD750B0012099D1209B7787DE66095
:100471000F787D16787DE67007787BF6787C7600BC
:100481007880E670030202AD7880167880E660031A
:0E0491000202AD787E7600787F76000202AD22
:1000C800787B7600787C7600787D7600787E76007E
:1000D800787F760078807600788176FF788276005F
:0C00E8007883E4F608F6C204C205C206E4
:0B049F0043890143C990C28DD28C221A
:0E19FA00000E010D020C030B040A050906087D
:1004AA00AF82D293C293D292EF6007D293C2931FC4
:1004BA0080F6C292D293C29322AE82AF83E56F6076
:1004CA000302057F7C0074805F4C24FF9291D293D3
:1004DA00C293EFA2E692079291D293C293EFA2E55A
:1004EA0092079291D293C293EFA2E492079291D289
:1004FA0093C293EFA2E392079291D293C293EFA28F
:10050A00E292079291D293C293EFA2E1920792915B
:10051A00D293C293EF1392079291D293C293EE337E
:10052A0092079291D293C293EEA2E692079291D247
:10053A0093C293EEA2E592079291D293C293EEA24E
:10054A00E492079291D293C293EEA2E39207929118
:10055A00D293C293EEA2E292079291D293C293EE01
:10056A00A2E192079291D293C293EE1392079291CB
:10057A00D293C293227401B56F02800302063E7CB5
:10058A000074805F4C24FF9291D293C293EFA2E64B
:10059A0092079291D293C293EFA2E592079291D2D7
:1005AA0093C293EFA2E492079291D293C293EFA2DD
:1005BA00E392079291D293C293EFA2E292079291A9
:1005CA00D293C293EFA2E192079291D293C293EF90
:1005DA001392079291D293C293EE3392079291D2D9
:1005EA0093C293EEA2E692079291D293C293EEA29D
:1005FA00E592079291D293C293EEA2E49207929166
:10060A00D293C293EEA2E392079291D293C293EE4F
:10061A00A2E292079291D293C293EEA2E19207923A
:10062A0091D293C293D292EE1392079291D293C22D
:10063A0093C29222156F7D0F8DF005F07B017C002D
:10064A008006EB2BFBEC33FCD5F0F7EE5203EF52AE
:10065A0004EB4C24FF9291EDB56F02D292D293C271
:10066A00931DED30E7D2C292227582030204AAE5F5
:10067A00822582FF0F0FC0071206C3D0077E01EE44
:10068A006016756F00851182851283C007C0061235
:10069A0004C3D006D00780138F6F85118285128319
:1006AA00C007C0061204C3D006D0071EBEFFD02260
:1006BA001206C375820C0204AA75820E0204AAC22B
:1006CA00CDC2CC43C9C275CAFE75CBFF75CCFE75C7
:1006DA00CDFF5392F043930FC293C291C292751108
:1006EA00707512007582011206790206BAAF82E4A9
:1006FA00CF25E0CF33FE74014FF511747E4EF5120B
:10070A0075820202067985821385831485F0157C29
:10071A000F7B01EB75F010A4F9AAF08C007F00E8BA
:10072A0029F9EF3AFAE92513F9EA3514FAAF1589E6
:10073A00828A838FF01219A2F9FF7E00EB6014758A
:10074A006F008E828F83C004C0031204C3D003D00B
:10075A00048012756F018E828F83C004C003120455
:10076A00C3D003D0041BBBFFAA1CBCFFA4900096F5
:10077A00121693C2CA120673900096121693D2CA20
:01078A00224C
:1000F400751685751700751800751900751A03753E
:0E0104001B88751C00751D00751E00751F03FD
:10078B00C2AC751900751700751800751E00751C25
:10079B0000751D00C208D2ACD2AF22C0E0C007C0AA
:1007AB0006C005C001C000C0D075D000309826E54A
:1007BB001AB51902801DAF16E517FE04FD8D17EE55
:1007CB002FF8A699C3ED951A4003751700E519FF8D
:1007DB0004F519C2981099028025E51E601FAF1B06
:1007EB00E51DFE04FD8D1DEE2FF98799C3ED951FB9
:1007FB004003751D00E51EFF14F51E8002C208D0D4
:10080B00D0D000D001D005D006D007D0E032AD82D9
:10081B00AE83AFF0E5197002C322C2ACAC16E5187B
:10082B00FB04FA8A18EB2CF987048D828E838FF0E8
:10083B00EC1218F4C3EA951A4003751800E5191465
:10084B00F519D2ACD322AF8230082AE51FB51E02B0
:10085B00C322C2ACAE1BE51CFD04FC8C1CED2EF8B8
:10086B00A607C3EC951F4003751C00E51EFE04F59F
:10087B001ED2AC8004D2088F99D322C2AC7519005A
:09088B00751700751800D2AC22AB
:1001120075238B75240075250075260075270875D3
:0E0122002893752900752A00752B00752C0294
:10089400C2EC752600752400752500752B0075299A
:1008A40000752A00C209D2ECD2AF22C0E0C007C052
:1008B40006C005C001C000C0D075D00030C026E518
:1008C40027B52602801DAF23E524FE04FD8D24EE0A
:1008D4002FF8A6C1C3ED95274003752400E526FF34
:1008E40004F526C2C010C1028025E52B601FAF2885
:1008F400E52AFE04FD8D2AEE2FF987C1C3ED952C60
:100904004003752A00E52BFF14F52B8002C209D0A1
:10091400D0D000D001D005D006D007D0E032AD82CF
:10092400AE83AFF0E5267002C322C2ECAC23E5250A
:10093400FB04FA8A25EB2CF987048D828E838FF0D1
:10094400EC1218F4C3EA95274003752500E5261434
:10095400F526D2ECD322AF8230092AE52CB52B023E
:10096400C322C2ECAE28E529FD04FC8C29ED2EF847
:10097400A607C3EC952C4003752900E52BFE04F56E
:100984002BD2EC8004D2098FC1D322C2EC7526008D
:10099400752400752500D2EC2275820212095A785A
:1009A4007E740E26F58212095A787F740326F58226
:1009B40002095A758201120851787B740E26F58259
:1009C400120851787C740326F582120851788186C6
:1009D40082020851758203120851788286821208B5
:1009E40051788486078F82120851788386820208A0
:1009F40051E526FF700122E5252523F987068E2D72
:100A0400BE013FBF040050012290002D75F040123A
:100A1400092290007B75F04012092290007C75F049
:100A24004012092290002D75F0401209227881E6C7
:100A3400B52D028008AD2D7881A605D205787D7686
:100A44000422BE033CBF0400403A90002D75F040E0
:100A540012092290002D75F040120922900084752D
:100A6400F04012092290008375F040120922788226
:100A7400E6B52D028008AF2D7882A607D206D204EF
:100A84002202098F22E519FF700122E5182516F9C3
:100A940087068E2EBE0225BF0300402390002E75CC
:100AA400F04012081990007E75F040120819900069
:100AB4007F75F04012081978807604220208862295
:100AC4007883860608E6C313CE13CEFF787B8604AC
:100AD4007D00740E2CFCE43DFD787E86027B00EAEA
:100AE4002CF582EB3DF583756F028B70C007C00651
:100AF4001219BEAC82AD83D006D0078C6F8D708E78
:100B0400828F8312192CAE82787BE6C313FFEEC367
:100B14009FFF7E00EE2E901A1893FDEFB5050FEEA1
:100B24002400F582E43401F58374FFF0800CEE2494
:100B340000F582E43401F583E4F00EBE100040D4E5
:100B4400227883868208E6C4C582C4540F6582C5B0
:100B540082540FC5826582C582F583787C86067FC0
:100B64000074032EFEE43FFF787F86047D00EC2EA4
:100B7400FEED3FFF8E6F8F7012192CAE82787CEEE3
:100B8400C396FF7E00EE901A0893FDEFB5050FEEB5
:100B94002400F582E43401F58374FFF0800CEE2424
:100BA40000F582E43401F583E4F00EBE100040D574
:010BB400221E
:101A080000000001010102FF02010101000000FFC6
:101A18000000010002000300040005000600FFFFAB
:101A28000601050104010301020101010001FFFF94
:100BB500C294758205121651121658D29422C29407
:100BC50075829F121651121658121658121658D2BF
:100BD5009422C294758206121651D294C2947582DB
:100BE50060121651D294120BB5E58230E00E758273
:100BF500CF1217B39000051216A980EA2285823616
:100C050085833785F038F539C294758203121651FC
:100C15008538821216518537821216518536821211
:100C25001651AD33AE34AF35852F3A85303B85311E
:100C35003C85323DE53A453B453C453D6035C00781
:100C4500C006C005121658AC82D005D006D0078D57
:100C5500828E838FF0EC1218F4A3AD82AE83153A21
:100C650074FFB53A0C153BB53B07153CB53C021571
:100C75003D80C1D2942285824585834685F047F51E
:100C850048C294758206121651D294C29475820296
:100C950012165185478212165185468212165185C4
:100CA5004582121651AD42AE43AF44853E49853F5C
:100CB5004A85404B85414CE549454A454B454C6085
:100CC500358D828E838FF01219A2FCA3AD82AE837F
:100CD5008C82C007C006C005121651D005D006D0BB
:100CE50007154974FFB5490C154AB54A07154BB5A3
:100CF5004B02154C80C1D294120BB5E58230E00849
:090D05009000051216A980F022ED
:0C01300078957600789676007897760037
:100D0E0075E20053E27F43E22975E30053E2BF53DD
:100D1E00D1FB75D18043D1012243E10443E102436B
:100D2E00E10143D81FD2EAD2AF2275EE4075EF0033
:100D3E0075E48075E50075EBCC75D41275D212751D
:100D4E00EC0075ED0075EA4075DC0222C022C0E0B1
:100D5E00C0F0C082C083C007C006C005C004C00377
:100D6E00C002C001C000C0D075D00020D90302124D
:100D7E009A743F55D9FFBF0003021261BF02028071
:100D8E0038BF20030211E2BF2102800DBF22028074
:100D9E0016BF3002803C02129875D30074FC55D2F7
:100DAE004402F5D202129875D50074FC55D4440253
:100DBE00F5D47897760002129820DE030212987806
:100DCE0095A6DB7896760074F355D44408F5D402D4
:100DDE001298AEDB7F00BE0805BF00028003021131
:100DEE00B6900007E0FC7D00900006E0FB7A004D17
:100DFE00F54DEA4CF54E7E007F00900001E0F54F78
:100E0E00900000E0FD5460607A7420B54F0302112B
:100E1E00BA7421B54F02800A7422B54F030211BA7B
:100E2E00805A755246755302755400C3E54D9408A9
:100E3E00E54E9400920A40067C087D008004AC4D7D
:100E4E00AD4E8C068D0785526F8553708554718E0D
:100E5E00728F7390000075F000C007C00612189FC5
:100E6E00D006D007E54DC39EF54DE54E9FF54EEEEF
:100E7E002552F552EF3553F5530211BA7EFF7F001E
:100E8E000211BAE54F24F550030211B0E54F240BC1
:100E9E0083F582E54F240F83F583E47390DAB083F4
:100EAE00B0A6C0B0B3CED7110F1110110F0E110F87
:100EBE000F0F900003E0FDBD0102800ABD0202800B
:100ECE0014BD0372801E75523875531A7554807E88
:100EDE00127F00806575524A75531A7554807E4391
:100EEE007F008056900002E0700F75528D75531A78
:100EFE007554807E047F008041900002E0FDBD01AC
:100F0E000F7552AD75531A7554807E187F00802A66
:100F1E00900002E0FDBD020F75529175531A755483
:100F2E00807E1C7F0080137552107553017554001E
:100F3E007E227F0080047EFF7F00C3EE954DEF95ED
:100F4E004E50048E4D8F4EC3E54D9408E54E9400E1
:100F5E00920A40067C087D008004AC4DAD4E8C0696
:100F6E008D0785526F8553708554718E728F739075
:100F7E00000075F000C007C00612189FD006D007FB
:100F8E00E54DC39EF54DE54E9FF54EEE2552F552BD
:100F9E00EF3553F5530211BA900002E0FD8D4D75F9
:100FAE004E000211BA900000E551F0C3E54D9401D8
:100FBE00E54E940050030211BA7E017F000211BA71
:100FCE00900002E0F5510211BA0211BA900000E051
:100FDE00FD541F7033900003E0FC7D00900002E092
:100FEE00FB7A004205EA4204BD0116BC0013901ABA
:100FFE0051E493FD30E5030211BA7EFF7F0002112A
:10100E00BA7EFF7F000211BA900000E0FD53051F6B
:10101E00BD025B900004E0FDBD01028044BD0202F2
:10102E00802EBD03028018BD8102802ABD820280FF
:10103E0014BD833374BC55D64402F5D60211BA538F
:10104E00D6730211BA74BC55D44402F5D40211BA47
:10105E0053D4730211BA74BC55D24402F5D20211A4
:10106E00BA53D2730211BA7EFF7F000211BA7EFF0D
:10107E007F000211BA900000E0FD541F704D9000E9
:10108E0003E0FC7D00900002E0FB7A004205EA429C
:10109E0004BD0130BC002D901A51E493FD30E51DC6
:1010AE00E5A220E7FB75A15575A1AA75A9C14387D5
:1010BE000275A15575A1AA75A9000211BA7EFF7F0E
:1010CE00000211BA7EFF7F000211BA900000E0FD0F
:1010DE0053051FBD0202800302118A900003E0FC3B
:1010EE007D00900002E0FB7A004205EA4204ED4CDE
:1010FE006003021184900005E0FC7D00900004E086
:10110E00FB7A004205EA4204BD0105BC000280588C
:10111E00BD0205BC0002803CBD0305BC0002802060
:10112E00BD8105BC00028036BD8205BC0002801A5E
:10113E00BD833DBC003A74BF55D64403F5D6806CD2
:10114E00747F55D6440CF5D6806274BF55D44403D3
:10115E00F5D48058747F55D4440CF5D4804E74BFAA
:10116E0055D24403F5D28044747F55D2440CF5D247
:10117E007EFF7F0080367EFF7F0080307EFF7F0007
:10118E00802A900000E4F0900001F0C3E54D940237
:10119E00E54E940040067E027F008010AE4DAF4EAD
:1011AE00800A7EFF7F0080047EFF7F00BEFF0CBFA3
:1011BE000009754FFF75DCCF021298C374089EE4C8
:1011CE009F40088EDD75DCC002129875DD0075DC5F
:1011DE00C00212987405B54F02805A7406B54F6B53
:1011EE00C3E54D9408E54E9400920A40067C087DB6
:1011FE00008004AC4DAD4E8C068D0785526F855325
:10120E00708554718E728F7390000075F000C00758
:10121E00C00612189FD006D007E54DC39EF54DE5CA
:10122E004E9FF54EEE2552F552EF3553F5538EDDAA
:10123E0063DC408055748055E3FF7E00E54D420728
:10124E00E54E42068FE375DC02803F75DD0075DCEE
:10125E000280377420B54F2C30DE2F756F007570FD
:10126E000075710085DB7275730090024675F00093
:10127E0012189F90024675F0001213BB75DD0085A3
:10128E00DCDC800675DD0043DC02C2D930D8207567
:10129E00DC0275D21275D41275E300C2DAC2D9C25D
:1012AE00D81213BC78957600755100789776001099
:1012BE00DA028021E5DA30E21FE5A220E7FB75A114
:1012CE005575A1AA75A9C143870275A15575A1AA25
:1012DE0075A900800375D8FFD0D0D000D001D00200
:1012EE00D003D004D005D006D007D083D082D0F062
:1012FE00D0E0D022329001107422F09001117403CC
:10130E00F07F008F057E0074FA2DFD743F3EFE8D3A
:10131E00828E83E493FEEF2F25E0FD24022410FB42
:10132E00E43401FCEEC4540F901AC593FA8B828CF0
:10133E0083F074032D2410F582E43401F583E4F078
:10134E0074042D2410FBE43401FC740F5E901AC556
:10135E0093FE8B828C83F074052D2410F582E43479
:10136E0001F583E4F00FBF0600409890012A742D1A
:10137E00F090012BE4F090012C744FF090012DE4CD
:10138E00F090012E7452F090012FE4F09001307421
:10139E0049F0900131E4F022120D0E120D38120DAB
:0D13AE002775DD0075D30075D5000213030F
:101A38001201100102000008861A888800010102BC
:101A4800030109024300020100A032090400000159
:101A580002020100052400100105240100000424ED
:101A680002020524060001070581030800FF090496
:101A78000100020A000000070502024000000705F5
:101A88008202400000040309041C034C0065006F37
:101A98000042006C0069006E006B00790032003073
:101AA8000031003800180342006C0069006E006BBA
:101AB8000069006E006C0061006200730030313212
:101AC8003334353637383941424344454600E1001E
:041AD8000000000802
:1013BB002222AF82900243E0FDA3E0FE9002437431
:1013CB00012DF0E43EA3F0ED2435F582EE3401F56A
:1013DB0083EFF022900245E4F0900243F0A3F090EB
:1013EB000134F022AF82900134E0FE24F950030265
:1013FB0014B3EE2E2E9014047302141902142D0242
:10140B00143F0214550214870214AB021419BFDEE9
:10141B000280030214B61213DF9001347401F00240
:10142B0014B6BFAD099001347402F00214B6121356
:10143B00DF0214B69001347403F08F058D067D0026
:10144B00900132EDF0EEA3F080619001347404F062
:10145B00900132E0FDA3E0FE8F037C00900132EBA4
:10146B004DF0EC4EA3F0900132E0FDA3E0FEC3ED96
:10147B00940EEE940140341213DF802F8F821213DF
:10148B00BD900243E0FEA3E0FF900132E0FCA3E03D
:10149B00FDC3EE9CEF9D40139001347405F0800B5F
:1014AB009001347406F080031213DF900134E0FFD7
:1014BB00BF0602D322C322900134E0FFBF0602D342
:0314CB0022C32217
:02013C00C20BF4
:1014CE00C20B75335D753400753540752F04E4F528
:1014DE0030F531F532900000E4F5F0120C0274791B
:1014EE00B55D537456B55E4E7434B55F497412B51E
:1014FE00604475335D753400753540752F04E4F521
:10150E0030F531F532900004E4F5F0120C02C3749C
:10151E0014955DE4955EE4955FE49560500A755D03
:10152E0014E4F55EF55FF560AC5D7898A604D20B19
:10153E0075820002154522AF827898C3EF9640015E
:10154E0022EF75F003A42402FEE435F0CE25E0CEA2
:10155E0033CE25E0CE33FF3395E0FDFC7533997520
:10156E003400753540752F0CE4F530F531F5328EBB
:10157E00828F838DF0EC120C02789D86040886050E
:10158E0008860608E6C313FFEE13FEED13FDEC13FB
:10159E00FCEFC313FFEE13FEED13FDEC13FC789D71
:1015AE00A60408A60508A60608A607EC4D4E4F7021
:1015BE000D789D7601087600087600087600228563
:1015CE00826385836485F06578A1866608866708E0
:1015DE00866808866985616F85627090000E1219A3
:1015EE000FAD82AE838E04E4FEFFED2566FDEC3575
:1015FE0067FCEE3568FEEF3569FF752F0EE4F530AA
:10160E00F531F5328563338564348565358D828C8D
:10161E00838EF0EF020C02AF8275FC00EF70057541
:10162E00FA608006BF030375FA6853920F4393B0B6
:10163E005393BF75FB022243FC5043FA01E5F87544
:10164E00F8FF228582F930FBFD2275F9FF30FBFD94
:10165E0085F9822275FC8075FA8153920F53930F90
:10166E00228582F910FC0280FB2210FC0280FB8591
:10167E00F9822275A15575A1AA74F855B94405F5DC
:10168E00B975A10022AE82AF83EE4F600D05A105A4
:10169E00A105A11EBEFF011F80EF22AE82AF83EE19
:1016AE004F60159003E8C007C006121693D006D0FF
:1016BE00071EBEFF011F80E72243C61022C29FD223
:1016CE009EC29DC2CDC2CC438780756AADE4F56BD8
:1016DE00F56CF56D756F0AF570F571F572856A82A8
:1016EE00856B83856CF0E56D1217B7AC828C6E75C9
:1016FE006F0AE4F570F571F572856A82856B8385E4
:10170E006CF0E56D12183A85826A85836B85F06CF4
:10171E00F56D74FB256E50157401256AF56AE43576
:10172E006BF56BE4356CF56CE4356DF56D740F553A
:10173E00894420F58943C9A0AF6AC3E49FF58DD2D1
:10174E008ED299D29C2210980280FB859982228596
:10175E00829910990280FB22AF8210990280FB8F32
:10176E00992210980280FB8599822243C62022C2BC
:10177E00C7D2C5D2C475C2EF2210C00280FB85C18C
:10178E0082228582C110C10280FB22AF8275A155D3
:10179E0075A1AAEF600543B101800353B1FE75A197
:1017AE000075FF00228582FF22F9E56F45704571B5
:1017BE00457260777800C308E57220E73BE56F2538
:1017CE00E0F56FE57033F570E57133F571E5723361
:1017DE00F572E582956FE5839570E5F09571E99563
:1017EE007250D4C3E57213F572E57113F571E5709D
:1017FE0013F570E56F13F56FE582956FFCE5839534
:10180E0070FDE5F09571FEE995724007F98EF08D49
:10181E00838C82C3E57213F572E57113F571E57071
:10182E0013F570E56F13F56FD8CEE922FB7A20E43D
:10183E00FCFDFEFFE5822582F582E58333F583E527
:10184E00F033F5F0EB33FB4017DAE98042E5822501
:10185E0082F582E58333F583E5F033F5F0EB33FB68
:10186E00EC33FCED33FDEE33FEEF33FFEC956FED15
:10187E009570EE9571EF95724013EC956FFCED95AA
:10188E0070FDEE9571FEEF9572FF438201DABEEBAD
:01189E002227
:06008A00E478FFF6D8FD4A
:10189F00AD82AE83AFF08D748E758F76856F778541
:1018AF007078857179A872A9738803890418B8FFB5
:1018BF000119EB4C60258577828578838579F01245
:1018CF0019A2FCA38582778583788D828E838FF012
:1018DF00EC1218F4A3AD82AE8380CE857482857529
:0518EF00838576F02264
:100068007907E94400601B7A01901AD5784675A093
:1000780002E493F2A308B8000205A0D9F4DAF275F5
:02008800A0FFD7
:1018F40020F71130F6138883A88220F509F6A8830F
:101904007583002280FEF280F5F022E582856FF077
:10191400A4C582C0F08570F0A4D0F025F0C58385FD
:101924006FF0A42583F58322E56F457060467A0144
:10193400E56F25E0F56FE570334012F570E58295AB
:101944006FE583957040030A80E6C3E57013F57074
:10195400E56F13F56FC3E582956FF5F0E583957038
:101964004005F58385F082C3E57013F570E56F13C8
:10197400F56FDAE1227A10E4FBFCE58225E0F582DA
:10198400E58333F583EB33FBEC33FCEB956FF5F038
:0E199400EC95704006FCABF0438201DADD22D8
:100090007800E84400600A790075A001E4F309D80B
:1000A000FC7846E84401600C7902900100E4F0A37A
:0400B000D8FCD9FAA5
:0F005900E4737581A41219F6E582600302005664
:1019A20020F71430F6148883A88220F507E6A8836E
:1019B20075830022E280F7E49322E022C2D5E58318
:1019C20030E70DD2D5E4C39582F582E49583F583A1
:1019D200E57030E70DB2D5E4C3956FF56FE495700D
:1019E200F57012197930D50BE4C39582F582E4952E
:0819F20083F5832275820022B7
:00000001FF
