:0400000002005B326D
:01000B0032C2
:0100130032BA
:01001B0032B2
:0300230002078F42
:01002B0032A2
:01003300329A
:01003B003292
:03004300020D1794
:01004B003282
:0300530002089808
:1000B400C201751000751100D202D20375080075D3
:0400C4000938C20035
:0301320002005672
:030056000202D2D1
:1001350085820AD20022900140E0FF24FC50012272
:10014500EF2F2F90014C7302015802018902019E85
:1001550002027AE55DFF24F150027F0EEF6023EF86
:1001650014FE90197693240EFDE43401FCEF24402F
:10017500F582E43401F583E0FB8D828C83F08E07F4
:1001850080DAD2047401B55D0614B55E02800122E1
:10019500120BA07582210201357405B55D07740146
:1001A500B55E02800122900141E0FF7E007D007C6A
:1001B500008F3C8E3D8D3E8C3F8D0E8E0D8F0C8EAF
:1001C5000B850B3C850C3D850D3E850E3F90014210
:1001D500E0FAE4FBFEFFE50B4202E50C4203E50D08
:1001E5004206E50E42078A3C8B3D8E3E8F3F8E0EC2
:1001F5008B0D8A0C750B00850B3C850C3D850D3EE2
:10020500850E3F900143E0FCE4FDFEFFE50B420453
:10021500E50C4205E50D4206E50E42078C3C8D3D99
:100225008E3E8F3F8E0E8D0D8C0C750B00850B3C15
:10023500850C3D850D3E850E3F900144E0FAE4FBBB
:10024500FEFFE50B4202E50C4203E50D4206E50E15
:1002550042078A3C8B3D8E3E8F3FE4F54075410158
:10026500F542F543754445754501F546120C49754A
:1002750082210201351214307582210201351215D1
:10028500F520B51420B311C2AF75820012170D8584
:10029500088285098312005975820112170D1216FD
:1002A5003F1216F11216ED12077412087D12138D06
:1002B50012135D758200121599121430120476120C
:1002C50006A0E51890196E93F5820206CE120283F8
:1002D50020B51F30021C0519D206300B0CC3E519D9
:1002E500955F400E751900800974FE251950037538
:1002F5001900A2B5920220B31030030D0518D205DE
:1003050074F825185003751800A2B392031209D585
:10031500120A60E54B6046E557602AD201AF5805E1
:1003250058EF2480F582E43400F583E0F58212135A
:10033500951557E557700353D4F312142750061239
:10034500013B12138DE55970143000119000C0E582
:100355000AF0C20075D50153D4FC75590110050288
:10036500800BE51890196E93F5821206CE100602E1
:100375008009300B068519821214AA1004030203A2
:10038500E72001551209BC300C3E75640075650106
:10039500756600851A82851B83121512750F00E597
:1003A5000F90197693240EFFE43401FEE50F240027
:1003B500F582E43401F583E0FD8F828E83F0050F2D
:1003C50074F2250F50D98011E5197005120B1480B0
:1003D500087401B51903120A9A90010E75F00012FE
:1003E50006E7108D030202D57582DC121727051169
:1003F500200144E5127040300C09789F8606088676
:100405000780047E047F00AC117D00C3EE9CEF9D48
:100415005025751100051AE4B51A02051B300C1597
:10042500789B8606088607C3E51A9EE51B9F40054F
:10043500E4F51AF51BD2040510E5102485400302E6
:1004450002D575100012098612099EE5146009D5BA
:100455001406751200751300E51770030202D51511
:1004650017E51760030202D575150075160002021F
:01047500D5B1
:08196E0049FF491506020615A8
:1000C8007512007513007514007515007516007506
:1000D8001700751800751900E4F51AF51BC204C25B
:0300E80005C20648
:0B04760043890143C990C28DD28C2243
:0E197600000E010D020C030B040A0509060801
:10048100AF82D293C293D292EF6007D293C2931FED
:1004910080F6C292D293C29322AE82AF83E570609E
:1004A100030205567C0074805F4C24FF9291D29325
:1004B100C293EFA2E692079291D293C293EFA2E583
:1004C10092079291D293C293EFA2E492079291D2B2
:1004D10093C293EFA2E392079291D293C293EFA2B8
:1004E100E292079291D293C293EFA2E19207929185
:1004F100D293C293EF1392079291D293C293EE33A8
:1005010092079291D293C293EEA2E692079291D270
:1005110093C293EEA2E592079291D293C293EEA277
:10052100E492079291D293C293EEA2E39207929141
:10053100D293C293EEA2E292079291D293C293EE2A
:10054100A2E192079291D293C293EE1392079291F4
:10055100D293C293227401B5700280030206157C06
:100561000074805F4C24FF9291D293C293EFA2E674
:1005710092079291D293C293EFA2E592079291D200
:1005810093C293EFA2E492079291D293C293EFA206
:10059100E392079291D293C293EFA2E292079291D2
:1005A100D293C293EFA2E192079291D293C293EFB9
:1005B1001392079291D293C293EE3392079291D202
:1005C10093C293EEA2E692079291D293C293EEA2C6
:1005D100E592079291D293C293EEA2E4920792918F
:1005E100D293C293EEA2E392079291D293C293EE79
:1005F100A2E292079291D293C293EEA2E192079264
:1006010091D293C293D292EE1392079291D293C256
:1006110093C2922215707D0F8DF005F07B017C0055
:100621008006EB2BFBEC33FCD5F0F7EE5203EF52D7
:1006310004EB4C24FF9291EDB57002D292D293C299
:10064100931DED30E7D2C29222758203020481E547
:10065100822582FF0F0FC00712069AD0077E01EE96
:100661006016757000852382852483C007C0061239
:10067100049AD006D00780138F7085238285248346
:10068100C007C00612049AD006D0071EBEFFD022B2
:1006910012069A75820C02048175820E020481C2CF
:1006A100CDC2CC43C9C275CAFE75CBFF75CCFE75F0
:1006B100CDFF5392F043930FC293C291C29275231F
:1006C10070752400758201120650020691AF82E412
:1006D100CF25E0CF33FE74014FF523747E4EF52410
:1006E10075820202065085822585832685F0277C46
:1006F1000F7B01EB75F010A4F9AAF08C007F00E8E4
:1007010029F9EF3AFAE92525F9EA3526FAAF2789D9
:10071100828A838FF0121916F975F002A42484F5E8
:1007210082741935F0F583E493FEA3E493FFEB6043
:10073100147570008E828F83C004C00312049AD096
:1007410003D00480127570018E828F83C004C003B0
:1007510012049AD003D0041BBBFF981CBCFF9290DB
:100761000096121607C2CA12064A90009612160780
:03077100D2CA22C7
:10198400000003000A001500240036004C00640027
:101994007F009E00BF00E300090132015E018C015B
:1019A400BD01F10126025F029A02D7021603580311
:1019B4009C03E3032C047704C40414056505B905EA
:1019C40010066806C3061F077E07DF074208A7083C
:1019D4000F097809E409510AC10A330BA60B1C0C40
:1019E400940C0D0D890D070E870E080F8C0F121025
:1019F40099102311AF113C12CB125D13F01385140F
:101A04001C15B5155016ED168B172C18CE18721917
:101A1400191AC11A6A1B161CC31C731D241ED71E57
:101A24008C1F4220FB20B52171222F23EF23B024E9
:101A340073253826FF26C82792285E292C2AFB2ADC
:101A4400CD2BA02C752D4B2E242FFE2FDA30B73141
:101A5400973278335A343F3525360D37F637E23826
:101A6400CF39BD3AAE3BA03C943D893E803F79409E
:101A7400744170426E436D446E45714676477C48AE
:101A840084498D4A984BA54CB44DC44ED54FE9506A
:101A9400FE5114532D54475562567F579E58BE59D4
:101AA400E05A045C295D505E795FA360CE61FB62FD
:101AB4002A645B658D66C167F6682D6A656B9F6CE9
:101AC400DB6D186F57709771D9721C746175A876A5
:101AD400F0773A79857AD27B217D717EC27F158138
:101AE4006A82C08318857186CC872989878AE68BA8
:101AF400478DAA8E0E907391DB924394AE951997FD
:101B04008798F699669BD89C4B9EC09F37A1AEA23E
:101B140028A4A3A51FA79DA81DAA9EAB20ADA4AE73
:101B24002AB0B1B13AB3C4B44FB6DCB76BB9FBBA9F
:101B34008CBC1FBEB4BF4AC1E1C27AC414C6B0C7CC
:101B44004EC9ECCA8DCC2FCED2CF77D11DD3C5D4FC
:101B54006ED618D8C4D972DB21DDD2DE83E037E239
:101B6400ECE3A2E55AE713E9CEEA8AEC48EE07F083
:101B7400C7F189F34DF512F7D8F8A0FA69FCFFFF15
:1000EB0075287B752900752A00752B00752C0875F2
:0E00FB002D83752E00752F00753000753108AD
:10077400C2AC752B00752900752A00753000752EE2
:1007840000752F00C208D2ACD2AF22C0E0C007C0AF
:1007940006C005C001C000C0D075D000309826E561
:1007A4002CB52B02801DAF28E529FE04FD8D29EE12
:1007B4002FF8A699C3ED952C4003752900E52BFF6E
:1007C40004F52BC2981099028025E530601FAF2DE7
:1007D400E52FFE04FD8D2FEE2FF98799C3ED95319A
:1007E4004003752F00E530FF14F5308002C208D0B5
:1007F400D0D000D001D005D006D007D0E032AD82F1
:10080400AE83AFF0E52B7002C322C2ACAC28E52A5C
:10081400FB04FA8A2AEB2CF987048D828E838FF0ED
:10082400EC121868C3EA952C4003752A00E52B14D2
:10083400F52BD2ACD322AF8230082AE531B5300291
:10084400C322C2ACAE2DE52EFD04FC8C2EED2EF899
:10085400A607C3EC95314003752E00E530FE04F580
:1008640030D2AC8004D2088F99D322C2AC752B004D
:09087400752900752A00D2AC229E
:1001090075328B7533007534007535007536087591
:0E0119003793753800753900753A00753B084C
:10087D00C2EC753500753300753400753A00753866
:10088D0000753900C209D2ECD2AF22C0E0C007C05A
:10089D0006C005C001C000C0D075D00030C026E52F
:1008AD0036B53502801DAF32E533FE04FD8D33EED6
:1008BD002FF8A6C1C3ED95364003753300E535FF1E
:1008CD0004F535C2C010C1028025E53A601FAF376F
:1008DD00E539FE04FD8D39EE2FF987C1C3ED953B4A
:1008ED004003753900E53AFF14F53A8002C209D08C
:1008FD00D0D000D001D005D006D007D0E032AD82E7
:10090D00AE83AFF0E5357002C322C2ECAC32E534F4
:10091D00FB04FA8A34EB2CF987048D828E838FF0D9
:10092D00EC121868C3EA95364003753400E53514AA
:10093D00F535D2ECD322AF8230092AE53BB53A0228
:10094D00C322C2ECAE37E538FD04FC8C38ED2EF831
:10095D00A607C3EC953B4003753800E53AFE04F558
:10096D003AD2EC8004D2098FC1D322C2EC75350086
:10097D00753300753400D2EC22758202120943746E
:10098D000E2515F58212094374032516F582020909
:10099D004375820112083A740E2512F58212083A37
:1009AD0074032513F58212083A85188202083A75E8
:1009BD00820312083A85198212083AAF1B8F8212F0
:1009CD00083A851A8202083AE535FF700122E534AE
:1009DD002532F987068E1CBE013ABF040050012254
:1009ED0090001C75F04012090B90001275F040122A
:1009FD00090B90001375F04012090B90001C75F057
:100A0D004012090BE518B51C028005851C18D2058E
:100A1D0075140422BE0338BF0400403690001C75C7
:100A2D00F04012090B90001C75F04012090B90005C
:100A3D001B75F04012090B90001A75F04012090B4E
:100A4D00E519B51C028005851C19D206D2042202B7
:100A5D00097822E52BFF700122E52A2528F9870662
:100A6D008E1DBE0224BF0300402290001D75F04074
:100A7D0012080290001575F04012080290001675CC
:100A8D00F0401208027517042202086F22AE1AE513
:100A9D001BC313CE13CEFFAC127D00740E2CFCE4E1
:100AAD003DFDAA157B00EA2CF582EB3DF5837570B3
:100ABD00028B71C007C006121932AC82AD83D0060D
:100ACD00D0078C708D718E828F831218A0AE82E547
:100ADD0012C313FFEEC39FFF7E00EE2E901B949367
:100AED00FDEFB5050FEE240EF582E43401F58374A8
:100AFD00FFF0800CEE240EF582E43401F583E4F072
:100B0D000EBE100040D422851A82E51BC4C582C4D6
:100B1D00540F6582C582540FC5826582C582F583E7
:100B2D00AE137F0074032EFEE43FFFAC167D00EC88
:100B3D002EFEED3FFF8E708F711218A0AE82EEC3A8
:100B4D009513FF7E00EE901B8493FDEFB5050FEE20
:100B5D00240EF582E43401F58374FFF0800CEE244D
:100B6D000EF582E43401F583E4F00EBE100040D59D
:010B7D002255
:101B840000000001020202FF02020201000000FF45
:101B94000000010002000300040005000600FFFF2E
:101BA4000601050104010301020101010001FFFF17
:100B7E00C2947582051215C51215CCD29422C29458
:100B8E0075829F1215C51215CC1215CC1215CCD22A
:100B9E009422C2947582061215C5D294C29475829F
:100BAE00601215C5D294120B7EE58230E00E75826E
:100BBE00DC12172790000512161D80EA22C29475CA
:100BCE00820B1215C5853E821215C5853D82121502
:100BDE00C5853C821215C57582001215C5E54045C6
:100BEE0041454245436051AD44AE45AF46C007C096
:100BFE0006C0051215CCAC82D005D006D0078D826A
:100C0E008E838FF0EC121868AD44AE45AF460DBD25
:100C1E0000010E8D448E458F46AC40AD41AE42AFC5
:100C2E00431CBCFF091DBDFF051EBEFF011F8C40EE
:100C3E008D418E428F4380A5D29422C29475820636
:100C4E001215C5D294C2947582021215C5853E82C4
:100C5E001215C5853D821215C5853C821215C5E556
:100C6E0040454145424543604185448285458385E3
:100C7E0046F0121916F5821215C5AD44AE45AF46B3
:100C8E000DBD00010E8D448E458F46AC40AD41AE7C
:100C9E0042AF431CBCFF091DBDFF051EBEFF011F59
:100CAE008C408D418E428F4380B5D294120B7EE5DF
:0D0CBE008230E00890000512161D80F02223
:0901270075570075580075590068
:100CCB0075E20053E27F43E22975E30053E2BF5321
:100CDB00D1FB75D18043D1012243E10443E10243AF
:100CEB00E10143D81FD2EAD2AF2275EE4075EF0077
:100CFB0075E48075E50075EBCC75D41275D2127561
:100D0B00EC0075ED0075EA4075DC0222C022C0E0F4
:100D1B00C0F0C082C083C007C006C005C004C003BA
:100D2B00C002C001C000C0D075D000E5DA30E206C9
:100D3B0075D8FF02129D20D903021256743F55D964
:100D4B00FFBF0003021226BF02028037BF2003023F
:100D5B0011A7BF2102800DBF22028016BF30028077
:100D6B003902125475D30074FC55D24402F5D202E9
:100D7B00125475D50074FC55D44402F5D475590042
:100D8B0002125420DE0302125485DB57755800748F
:100D9B00F355D44408F5D4021254AEDB7F00BE08E1
:100DAB0005BF0002800302117B900007E0FC7D0071
:100DBB00900006E0FB7A004DF547EA4CF5487E00C3
:100DCB007F00900001E0F549900000E0FD54606069
:100DDB007A7420B5490302117F7421B54902800A48
:100DEB007422B5490302117F805A754C4E754D0222
:100DFB00754E00C3E5479408E5489400920A4006F7
:100E0B007C087D008004AC47AD488C068D07854C73
:100E1B0070854D71854E728E738F7490000075F0D6
:100E2B0000C007C006121813D006D007E547C39EB3
:100E3B00F547E5489FF548EE254CF54CEF354DF55C
:100E4B004D02117F7EFF7F0002117FE54924F55093
:100E5B0003021175E549240B83F582E549240F83C1
:100E6B00F583E473559F7548756B857578939C1165
:100E7B000F1110110F0E110F0F0F900003E0FDBD9E
:100E8B000102800ABD02028014BD0372801E754CE4
:100E9B00B4754D1B754E807E127F008065754CC6F8
:100EAB00754D1B754E807E437F008056900002E08F
:100EBB00700F754C09754D1C754E807E047F00803C
:100ECB0041900002E0FDBD010F754C29754D1C755D
:100EDB004E807E187F00802A900002E0FDBD020F3D
:100EEB00754C0D754D1C754E807E1C7F00801375E7
:100EFB004C1E754D01754E007E227F0080047EFFD7
:100F0B007F00C3EE9547EF954850048E478F48C33B
:100F1B00E5479408E5489400920A40067C087D005A
:100F2B008004AC47AD488C068D07854C70854D71A0
:100F3B00854E728E738F7490000075F000C007C0E1
:100F4B0006121813D006D007E547C39EF547E548B0
:100F5B009FF548EE254CF54CEF354DF54D02117FC5
:100F6B00900002E0FD8D4775480002117F90000054
:100F7B00E54BF0C3E5479401E5489400500302119B
:100F8B007F7E017F0002117F900002E0F54B021182
:100F9B007F02117F900000E0FD541F70339000031F
:100FAB00E0FC7D00900002E0FB7A004205EA42047F
:100FBB00BD0116BC0013901BCDE493FD30E503027D
:100FCB00117F7EFF7F0002117F7EFF7F0002117F6A
:100FDB00900000E0FD53051FBD025B900004E0FD97
:100FEB00BD01028044BD0202802EBD03028018BDEC
:100FFB008102802ABD82028014BD833374BC55D616
:10100B004402F5D602117F53D67302117F74BC557F
:10101B00D44402F5D402117F53D47302117F74BCF4
:10102B0055D24402F5D202117F53D27302117F7E47
:10103B00FF7F0002117F7EFF7F0002117F90000077
:10104B00E0FD541F704D900003E0FC7D009000020A
:10105B00E0FB7A004205EA4204BD0130BC002D9052
:10106B001BCDE493FD30E51DE5A220E7FB75A155F3
:10107B0075A1AA75A9C143870275A15575A1AA755A
:10108B00A90002117F7EFF7F0002117F7EFF7F0090
:10109B0002117F900000E0FD53051FBD020280038B
:1010AB0002114F900003E0FC7D00900002E0FB7A00
:1010BB00004205EA4204ED4C600302114990000521
:1010CB00E0FC7D00900004E0FB7A004205EA42045C
:1010DB00BD0105BC00028058BD0205BC0002803C6E
:1010EB00BD0305BC00028020BD8105BC000280361B
:1010FB00BD8205BC0002801ABD833DBC003A74BFA3
:10110B0055D64403F5D6806C747F55D6440CF5D672
:10111B00806274BF55D44403F5D48058747F55D482
:10112B00440CF5D4804E74BF55D24403F5D28044A1
:10113B00747F55D2440CF5D27EFF7F0080367EFF44
:10114B007F0080307EFF7F00802A900000E4F090CB
:10115B000001F0C3E5479402E548940040067E0287
:10116B007F008010AE47AF48800A7EFF7F0080046F
:10117B007EFF7F00BEFF0CBF00097549FF75DCCFFA
:10118B00021254C374089EE49F40088EDD75DCC0C8
:10119B0002125475DD0075DCC00212547405B5499A
:1011AB0002805A7406B5496BC3E5479408E5489429
:1011BB0000920A40067C087D008004AC47AD488C49
:1011CB00068D07854C70854D71854E728E738F74AD
:1011DB0090000075F000C007C006121813D006D09F
:1011EB0007E547C39EF547E5489FF548EE254CF5C7
:1011FB004CEF354DF54D8EDD63DC40804C748055E6
:10120B00E3FF7E00E5474207E54842068FE375DCC6
:10121B0002803675DD0075DC02802E7420B5492303
:10122B0030DE2675700075710075720085DB737585
:10123B00740090024E75F00012181375DD0085DCFA
:10124B00DC800675DD0043DC02C2D930D81B75DCAF
:10125B000275D21275D41275E300C2DAC2D9C2D8A4
:10126B00755700754B0075590010DA028021E5DACD
:10127B0030E21FE5A220E7FB75A15575A1AA75A960
:10128B00C143870275A15575A1AA75A90080037585
:10129B00D8FFD0D0D000D001D002D003D004D005DD
:1012AB00D006D007D083D082D0F0D0E0D0223290BD
:1012BB00011E7422F090011F7403F07F008F057ED6
:1012CB000074FA2DFD743F3EFE8D828E83E493FEF7
:1012DB00EF2F25E0FD2402241EFBE43401FCEEC4B9
:1012EB00540F901C4193FA8B828C83F074032D2442
:1012FB001EF582E43401F583E4F074042D241EFB07
:10130B00E43401FC740F5E901C4193FE8B828C8342
:10131B00F074052D241EF582E43401F583E4F00FFF
:10132B00BF06004098900138742DF0900139E4F01D
:10133B0090013A7444F090013BE4F090013C744905
:10134B00F090013DE4F090013E7453F090013FE4C6
:10135B00F022120CCB120CF5120CE475DD0075D3D8
:07136B000075D5000212BA63
:101BB4001201100102000008861A8888000101023F
:101BC400030109024300020100A0320904000001DC
:101BD4000202010005240010010524010000042470
:101BE40002020524060001070581030800FF090419
:101BF4000100020A00000007050202400000070578
:101C04008202400000040309011C034C0065006FBC
:101C14000042006C0069006E006B007900320030F5
:101C24000031003800180342006C0069006E006B3C
:101C34000069006E006C0061006200730030313294
:101C44003334353637383941424344454600E100A0
:041C54000000000884
:10137200AF82AD5DAE5E055DE4B55D02055EED2456
:1013820040F582EE3401F583EFF022E4F55DF55E7F
:10139200F55C22AF82E55C24F9500302141BE55C84
:1013A20075F003A49013AA730213BF0213CA0213A7
:1013B200D70213E40214010214160213BFBFDE5C4B
:1013C20012138D755C018054BFAD05755C02804CB3
:1013D20012138D8047755C038F057E008D5B8E5ADC
:1013E200803A755C048F057E00ED425AEE425BC383
:1013F200E55A940EE55B9401402212138D801D8FF5
:1014020082121372C3E55D955AE55E955B400D75D8
:101412005C058008755C06800312138D7406B55C4A
:0E14220002D322C3227406B55C02D322C32279
:02013000C20B00
:10143000C20BE4F53CF53DF53EF53F754004F54142
:10144000F542F543754460754500754640120BCB77
:101450007478B560547456B5614F7434B5624A748B
:1014600012B56345753C04E4F53DF53EF53F754026
:1014700004F541F542F543754460754500754640F5
:10148000120BCBC374FF9560E49561E49562E4951B
:1014900063500A7560FFE4F561F562F563AC608C3A
:1014A0005FD20B7582000214AA22AF82C20CC3EF76
:1014B000955F400122EF75F00AA42408FEE435F0A0
:1014C000FF3395E0FDFC8E3C8F3D8D3E8C3F75409B
:1014D0000AE4F541F542F5437D9B7E007F408D4453
:1014E0008E458F46120BCB789F860608E6C313CE37
:1014F00013CEC313CE13CEFF789FA60608A607C34C
:10150000EE9402EF94005007789F7602087600D29E
:101510000C22AE82AF83789B8604088605C3EC9EBE
:10152000ED9F50047E007F00789D8604088605C3E9
:10153000740E9CE49D500C75400EE4F541F542F5A7
:1015400043800C7B007A008C408D418B428A43782B
:10155000A1866708866808866908866A789D86700D
:101560000886718E828F83121883AE82AF838E04B9
:101570008F05E4FEFFEC2567FCED3568FDEE35696F
:10158000FEEF356AFF8C3C8D3D8E3E8F3F85644477
:10159000856545856646020BCBAF8275FC00EF7012
:1015A0000575FA608006BF030375FA6853920F430E
:1015B00093B05393BF75FB022243FC5043FA01E5FD
:1015C000F875F8FF228582F930FBFD2275F9FF30AE
:1015D000FBFD85F9822275FC8075FA8153920F53C9
:1015E000930F228582F910FC0280FB2210FC0280FE
:1015F000FB85F9822275A15575A1AA74F855B944E5
:1016000005F5B975A10022AE82AF83EE4F600D05DE
:10161000A105A105A11EBEFF011F80EF22AE82AF72
:1016200083EE4F60159003E8C007C006121607D07E
:1016300006D0071EBEFF011F80E72243C61022C24C
:101640009FD29EC29DC2CDC2CC438780756BADE454
:10165000F56CF56DF56E75700AF571F572F57385BB
:101660006B82856C83856DF0E56E12172BAC828CD6
:101670006F75700AE4F571F572F573856B82856C90
:1016800083856DF0E56E1217AE85826B85836C8560
:10169000F06DF56E74FB256F50157401256BF56BBD
:1016A000E4356CF56CE4356DF56DE4356EF56E740E
:1016B0000F55894420F58943C9A0AF6BC3E49FF55A
:1016C0008DD28ED299D29C2210980280FB8599826D
:1016D0002285829910990280FB22AF8210990280A4
:1016E000FB8F992210980280FB8599822243C620A5
:1016F00022C2C7D2C5D2C475C2EF2210C00280FB7D
:1017000085C182228582C110C10280FB22AF827511
:10171000A15575A1AAEF600543B101800353B1FE45
:1017200075A10075FF00228582FF22F9E5704571E1
:101730004572457360777800C308E57320E73BE5A1
:101740007025E0F570E57133F571E57233F572E5FA
:101750007333F573E5829570E5839571E5F09572C5
:10176000E9957350D4C3E57313F573E57213F572FD
:10177000E57113F571E57013F570E5829570FCE580
:10178000839571FDE5F09572FEE995734007F98E3A
:10179000F08D838C82C3E57313F573E57213F572D4
:1017A000E57113F571E57013F570D8CEE922FB7A77
:1017B00020E4FCFDFEFFE5822582F582E58333F51A
:1017C00083E5F033F5F0EB33FB4017DAE98042E5CF
:1017D000822582F582E58333F583E5F033F5F0EB7E
:1017E00033FBEC33FCED33FDEE33FEEF33FFEC95D2
:1017F00070ED9571EE9572EF95734013EC9570FC5A
:10180000ED9571FDEE9572FEEF9573FF438201DA5F
:03181000BEEB220A
:06008A00E478FFF6D8FD4A
:10181300AD82AE83AFF08D758E768F7785707885C8
:10182300717985727AA873A9748803890418B8FF3B
:101833000119EB4C6025857882857983857AF012CE
:101843001916FCA38582788583798D828E838FF028
:10185300EC121868A3AD82AE8380CE85758285763F
:05186300838577F022EF
:100068007907E94400601B7A01901C51784E75A00D
:1000780002E493F2A308B8000205A0D9F4DAF275F5
:02008800A0FFD7
:1018680020F71130F6138883A88220F509F6A8839B
:101878007583002280FEF280F5F022E5828570F003
:10188800A4C582C0F08571F0A4D0F025F0C5838589
:1018980070F0A42583F58322E570457160467A01CE
:1018A800E57025E0F570E571334012F571E5829534
:1018B80070E583957140030A80E6C3E57113F571FD
:1018C800E57013F570C3E5829570F5F0E5839571C1
:1018D8004005F58385F082C3E57113F571E5701352
:1018E800F570DAE1227A10E4FBFCE58225E0F58266
:1018F800E58333F583EB33FBEC33FCEB9570F5F0C4
:0E190800EC95714006FCABF0438201DADD2263
:100090007800E84400600A790075A001E4F309D80B
:1000A000FC784EE84401600C7902900100E4F0A372
:0400B000D8FCD9FAA5
:0F005900E4737581A412196AE5826003020056F0
:1019160020F71430F6148883A88220F507E6A883FA
:1019260075830022E280F7E49322E022C2D5E583A4
:1019360030E70DD2D5E4C39582F582E49583F5832D
:10194600E57130E70DB2D5E4C39570F570E4957195
:10195600F5711218ED30D50BE4C39582F582E49546
:0819660083F583227582002243
:00000001FF
