:0400000002005B326D
:01000B0032C2
:0100130032BA
:01001B0032B2
:0300230002057C57
:01002B0032A2
:01003300329A
:01003B003292
:01004300328A
:01004B003282
:030053000207029F
:0600B40075080075093813
:03010200020056A2
:030056000201792B
:10010500120C5A120CA4120D56120D52120567123A
:1001150006ED758200120BFE120ABBC2CDC2CC439E
:10012500C9C275CAFE75CBFF75CCFE75CDFF438977
:100135000143C990C28DD28C75930F5392F04393AE
:100145000FC293C291C2921204C4750A00750B00C6
:10015500750C00750D00750E00750F007510FFE428
:10016500F511F512F513C2027582FF1204D37582DB
:1001750001020D727F007E00D200D201C007C006C9
:10018500120105D006D00720B51C20B319C2AF75E2
:100195008200C007C006120D728508828509831288
:1001A5000059D006D00720B50D30000A051174029C
:1001B500B51103751100A2B5920020B313300110DB
:1001C500E510C313F510C3940150037510FFD20356
:1001D500A2B39201C007C0061208C2120968D00670
:1001E500D007100302800E851082C007C0061204D6
:1001F500D3D006D007100202803DC007C006120802
:10020500A9D006D007E511700DC007C006120A4334
:10021500D006D00780107401B5110BC007C00612B7
:1002250009C9D006D00790000075F000C007C006C8
:100235001204ECD006D007108D030201AB7582CFF6
:10024500C007C006120D8CD006D0070EE50A701146
:10025500EE24FC500C7E000512E4B512020513D203
:10026500020FEF248540030201AB7F00C007C006E3
:1002750012087312088BD006D007E50C6009D50C5F
:1002850006750A00750B00E50F70030201AB150F2B
:10029500E50F60030201AB750D00750E000201ABA1
:1002A500AF82D293C293D292EF6007D293C2931FCB
:1002B50080F6C292D293C29322AE82AF83E5736079
:1002C5000302037A7C0074805F4C24FF9291D293E1
:1002D500C293EFA2E692049291D293C293EFA2E564
:1002E50092049291D293C293EFA2E492049291D296
:1002F50093C293EFA2E392049291D293C293EFA299
:10030500E292049291D293C293EFA2E19204929168
:10031500D293C293EF1392049291D293C293EE3388
:1003250092049291D293C293EEA2E692049291D254
:1003350093C293EEA2E592049291D293C293EEA258
:10034500E492049291D293C293EEA2E39204929125
:10035500D293C293EEA2E292049291D293C293EE0B
:10036500A2E192049291D293C293EE1392049291D8
:10037500D293C293227401B5730280030204397CBF
:100385000074805F4C24FF9291D293C293EFA2E652
:1003950092049291D293C293EFA2E592049291D2E4
:1003A50093C293EFA2E492049291D293C293EFA2E7
:1003B500E392049291D293C293EFA2E292049291B6
:1003C500D293C293EFA2E192049291D293C293EF9A
:1003D5001392049291D293C293EE3392049291D2E6
:1003E50093C293EEA2E692049291D293C293EEA2A7
:1003F500E592049291D293C293EEA2E49204929173
:10040500D293C293EEA2E392049291D293C293EE59
:10041500A2E292049291D293C293EEA2E192049247
:1004250091D293C293D292EE1392049291D293C237
:1004350093C2922215737D0F8DF005F07B017C0030
:100445008006EB2BFBEC33FCD5F0F7EE5203EF52B5
:1004550004EB4C24FF9291EDB57302D292D293C274
:10046500931DED30E7D2C292227582030202A5E503
:10047500822582FF0F0FC0071204BED0077E01EE52
:100485006016757300851482851583C007C0061232
:1004950002BED006D00780138F738514828515831D
:1004A500C007C0061202BED006D0071EBEFFD0226E
:1004B5001204BE75820C0202A575820E0202A57594
:1004C50014707515007582011204740204B5AF82AB
:1004D500E4CF25E0CF33FE74014FF514747E4EF55D
:1004E5001575820202047485821685831785F018B6
:1004F5007C0F7B01EB75F010A4F9AAF08C007F004E
:10050500E829F9EF3AFAE92516F9EA3517FAAF18A5
:1005150089828A838FF0120F09F9FF7E00EB601440
:100525007573008E828F83C004C0031202BED00390
:10053500D00480127573018E828F83C004C00312AC
:1005450002BED003D0041BBBFFAA1CBCFFA49000B5
:1005550096120C6CC2CA12046E900096120C6CD2E4
:02056500CA22A8
:1000BA00752D21752E00752F40753000753100752C
:1000CA003208753329753400753540753600753731
:0400DA000075380471
:10056700C2AC753100753000753700753600C205AD
:10057700D2ACD2AF22C0E0C0F0C082C083C007C0F7
:1005870006C005C004C003C002C0D075D000C2B504
:10059700309843E531FFC39530FEB532028035AC64
:1005A7002DAD2EAE2FEF04F531AA327B00EA24FFE2
:1005B700F539EB34FFF53A8F037F00E5395203E550
:1005C7003A5207EB2CFCEF3DFD8C828D838EF0E5D4
:1005D70099120E78C2981099028041E536FFB53717
:1005E700028037AC33AD34AE35EF04F536AA387B2D
:1005F70000EA24FFF539EB34FFF53A8F037F00E576
:10060700395203E53A5207EB2CFCEF3DFD8C828D06
:10061700838EF0120F09F5998002C205D2B5D0D0AA
:10062700D002D003D004D005D006D007D083D08223
:10063700D0F0D0E03285827385837485F075E5301C
:10064700FCB53102C322C2ACAA2DAB2EAF2FEC04EE
:10065700F530AD327E00ED24FFF576EE34FFF57709
:100667007E00E5765204E5775206EC2AFAEE3BFB6C
:100677008A828B838FF0120F098573828574838535
:1006870075F0120E78D2ACD322858273300545E51A
:1006970037FEC39536FDB53802C322C2ACAB33ACC7
:1006A70034AD35EE04F537AA387F00EA24FFF57438
:1006B700EF34FFF5757F00E5745206E5755207EED6
:1006C7002BFBEF3CFC8B828C838DF0E573120E784D
:1006D700D2AC8005D205857399D322C2AC7531009F
:0606E700753000D2AC22C8
:1000DE0075473B754800754940754A00754B00756C
:1000EE004C08754D43754E00754F40755000755157
:0400FE000075520433
:1006ED00C2EC754B00754A00755100755000C2067D
:1006FD00D2ECD2AF22C0E0C0F0C082C083C007C030
:10070D0006C005C004C003C002C0D075D000C2B37E
:10071D0030C043E54BFFC3954AFEB54C028035AC66
:10072D0047AD48AE49EF04F54BAA4C7B00EA24FFD8
:10073D00F553EB34FFF5548F037F00E5535203E57A
:10074D00545207EB2CFCEF3DFD8C828D838EF0E532
:10075D00C1120E78C2C010C1028041E550FFB551E3
:10076D00028037AC4DAD4EAE4FEF04F550AA527B23
:10077D0000EA24FFF553EB34FFF5548F037F00E5BA
:10078D00535203E5545207EB2CFCEF3DFD8C828D4B
:10079D00838EF0120F09F5C18002C206D2B3D0D0FC
:1007AD00D002D003D004D005D006D007D083D0829C
:1007BD00D0F0D0E03285827385837485F075E54A7B
:1007CD00FCB54B02C322C2ECAA47AB48AF49EC04BF
:1007DD00F54AAD4C7E00ED24FFF576EE34FFF5774E
:1007ED007E00E5765204E5775206EC2AFAEE3BFBE5
:1007FD008A828B838FF0120F0985738285748385AE
:10080D0075F0120E78D2ECD322858273300645E551
:10081D0051FEC39550FDB55202C322C2ECAB4DAC97
:10082D004EAD4FEE04F551AA527F00EA24FFF57448
:10083D00EF34FFF5757F00E5745206E5755207EE4E
:10084D002BFBEF3CFC8B828C838DF0E573120E78C5
:10085D00D2EC8005D2068573C1D322C2EC754B0054
:10086D00754A00D2EC22758202120816740E250DFF
:10087D00F5821208167403250EF58202081675828C
:10088D0001120690740E250AF58212069074032546
:10089D000BF5821206908510820206907582031266
:1008AD000690851182120690AF138F8212069085E5
:1008BD001282020690AF4AAE4BEFB5060122AC4C48
:1008CD007D001CBCFF011D8F027B00EA5204EB5220
:1008DD0005EC2547FCED3548FDAB498C828D838BAE
:1008ED00F0120F09FD8D19EEC39FFFBD013ABF0434
:1008FD000050012290001975F0401207C290000AB5
:10090D0075F0401207C290000B75F0401207C290AF
:10091D00001975F0401207C2E510B5190280058562
:10092D001910D203750C0422BD032CBF0400402AFC
:10093D0090001975F0401207C290001175F0401229
:10094D0007C290001375F0401207C290001275F0A7
:10095D00401207C2D2022202086822AF30AE31EF38
:10096D00B5060122AC327D001CBCFF011D8F027B40
:10097D0000EA5204EB5205EC252DFCED352EFDABB6
:10098D002F8C828D838BF0120F09FC8C1AEEC39F76
:10099D00FFBC0224BF0300402290001A75F04012E4
:1009AD00063C90000D75F04012063C90000E75F05F
:1009BD004012063C750F04220206E222AE12E51328
:1009CD00C313CE13CEFFAC0A7D00740E2CFCE43D98
:1009DD00FDAA0D7B00EA2CF582EB3DF583757302C4
:1009ED008B74C007C006120F25AC82AD83D006D024
:1009FD00078C738D748E828F83120E93AE82E50AEF
:100A0D00C313FFEEC39FFF7E00EE2E900F7193FD7B
:100A1D00EFB5050FEE2400F582E43400F58374FF85
:100A2D00F0800CEE2400F582E43400F583E4F00E42
:100A3D00BE100040D422851282E513C4C582C45471
:100A4D000F6582C582540FC5826582C582F583AE5E
:100A5D000B7F0074032EFEE43FFFAC0E7D00EC2EE9
:100A6D00FEED3FFF8E738F74120E93AE82EEC39523
:100A7D000BFF7E00EE900F6193FDEFB5050FEE2499
:100A8D0000F582E43400F58374FFF0800CEE240051
:100A9D00F582E43400F583E4F00EBE100040D5225B
:100F610000000001020202FF02020201000000FF74
:100F71000000010002000300040005000600FFFF5D
:100F81000601050104010301020101010001FFFF46
:100AAD00C294758205120C2A120C31D29422C29472
:100ABD0075829F120C2A120C31120C31120C31D28C
:100ACD009422C294758206120C2AD294C294758215
:100ADD0060120C2AD294120AADE58230E008900023
:100AED000A120C8280F02285825C85835D85F05E22
:100AFD00F55FC29475820B120C2A855D82120C2A49
:100B0D00855E82120C2A855F82120C2A7582001274
:100B1D000C2AAD59AE5AAF5B855560855661855728
:100B2D0062855863E5604561456245636035C00780
:100B3D00C006C005120C31AC82D005D006D0078D91
:100B4D00828E838FF0EC120E78A3AD82AE8315608A
:100B5D0074FFB5600C1561B561071562B5620215BC
:100B6D006380C1D2942285826B85836C85F06DF58F
:100B7D006EC294758206120C2AD294C294758202AA
:100B8D00120C2A856C82120C2A856D82120C2A8514
:100B9D006E82120C2AAD68AE69AF6A85646F856589
:100BAD0070856671856772E56F4570457145726038
:100BBD00358D828E838FF0120F09FCA3AD82AE832B
:100BCD008C82C007C006C005120C2AD005D006D0F5
:100BDD0007156F74FFB56F0C1570B570071571B5EE
:100BED007102157280C1D294120AADE58220E0F82F
:100BFD0022AF8275FC00EF700575FA608006BF03A9
:100C0D000375FA6853920F4393B05393BF75FB026C
:100C1D002243FC5043FA01E5F875F8FF228582F96D
:100C2D0030FBFD2275F9FF30FBFD85F9822275FC45
:100C3D008075FA8153920F53930F228582F910FC20
:100C4D000280FB2210FC0280FB85F9822275A155E2
:100C5D0075A1AA74F855B94405F5B975A10022AE70
:100C6D0082AF83EE4F600D05A105A105A11EBEFF4C
:100C7D00011F80EF22AE82AF83EE4F60159003E827
:100C8D00C007C006120C6CD006D0071EBEFF011F98
:100C9D0080E72243C61022C29FD29EC29DC2CDC202
:100CAD00CC438780751BADE4F51CF51DF51E7573E2
:100CBD000AF574F575F576851B82851C83851DF007
:100CCD00E51E120D90AC828C1F75730AE4F574F558
:100CDD0075F576851B82851C83851DF0E51E120E2C
:100CED001385821B85831C85F01DF51E74FB251F46
:100CFD0050157401251BF51BE4351CF51CE4351D41
:100D0D00F51DE4351EF51E740F55894420F58943F4
:100D1D00C9A0AF1BC3E49FF58DD28ED299D29C2270
:100D2D0010980280FB859982228582991099028004
:100D3D00FB22AF8210990280FB8F992210980280BE
:100D4D00FB8599822243C62022C2C7D2C5D2C47563
:100D5D00C2EF2210C00280FB85C182228582C110A4
:100D6D00C10280FB22AF8275A15575A1AAEF600566
:100D7D0043B101800353B1FE75A10075FF002285BB
:100D8D0082FF22F9E57345744575457660777800E5
:100D9D00C308E57620E73BE57325E0F573E574338D
:100DAD00F574E57533F575E57633F576E58295736E
:100DBD00E5839574E5F09575E9957650D4C3E576A0
:100DCD0013F576E57513F575E57413F574E5731381
:100DDD00F573E5829573FCE5839574FDE5F09575E6
:100DED00FEE995764007F98EF08D838C82C3E5760A
:100DFD0013F576E57513F575E57413F574E5731351
:100E0D00F573D8CEE922FB7A20E4FCFDFEFFE582E6
:100E1D002582F582E58333F583E5F033F5F0EB3389
:100E2D00FB4017DAE98042E5822582F582E58333BE
:100E3D00F583E5F033F5F0EB33FBEC33FCED33FDEF
:100E4D00EE33FEEF33FFEC9573ED9574EE9575EF84
:100E5D0095764013EC9573FCED9574FDEE9575FE4E
:0B0E6D00EF9576FF438201DABEEB2216
:06008A00E478FFF6D8FD4A
:100068007900E94400601B7A00900F91781075A020
:1000780000E493F2A308B8000205A0D9F4DAF275F7
:02008800A0FFD7
:100E780020F71130F6138883A88220F509F6A88395
:100E88007583002280FEF280F5F022E573457460D8
:100E9800467A01E57325E0F573E574334012F5747D
:100EA800E5829573E583957440030A80E6C3E5748B
:100EB80013F574E57313F573C3E5829573F5F0E5DF
:100EC8008395744005F58385F082C3E57413F57442
:100ED800E57313F573DAE1227A10E4FBFCE5822569
:100EE800E0F582E58333F583EB33FBEC33FCEB95DC
:100EF80073F5F0EC95744006FCABF0438201DADD43
:010F080022C6
:100090007800E84400600A790075A000E4F309D80C
:1000A000FC7810E84400600C7901900000E4F0A3B3
:0400B000D8FCD9FAA5
:0F005900E473758177120F5DE582600302005634
:100F090020F71430F6148883A88220F507E6A88311
:100F190075830022E280F7E49322E022C2D5E583BB
:100F290030E70DD2D5E4C39582F582E49583F58344
:100F3900E57430E70DB2D5E4C39573F573E49574A0
:100F4900F574120EE030D50BE4C39582F582E49571
:080F590083F58322758200225A
:00000001FF
