:0400000002005B326D
:01000B0032C2
:0100130032BA
:01001B0032B2
:0300230002047F55
:01002B0032A2
:01003300329A
:01003B003292
:01004300328A
:01004B003282
:030053000206059D
:0600B40075080075093813
:03010200020056A2
:030056000201792B
:10010500120C8F120CD9120D8B120D8712046A1264
:1001150005F0758200120C33120AF0C2CDC2CC4331
:10012500C9C275CAFE75CBFF75CCFE75CDFF438977
:100135000143C990C28DD28C75930F5392F04393AE
:100145000FC293C291C2921203ED750A00750B009E
:10015500750C00750D00750E00750F007510FFE428
:10016500F511F512F513C2027582FF1203FC7582B3
:1001750001020DA77F007E00D200D201C007C00694
:10018500120105D006D00720B51C20B319C2AF75E2
:100195008200C007C006120DA78508828509831253
:1001A5000059D006D00720B50D30000A051174029C
:1001B500B51103751100A2B5920020B313300110DB
:1001C500E510C313F510C3940150037510FFD20356
:1001D500A2B39201C007C0061207C512086BD0066C
:1001E500D007100302800E851082C007C0061203D7
:1001F500FCD006D0071002028040C007C0061207D7
:10020500ACD006D007E511700DC007C006120A0C68
:10021500D006D00780107401B5110BC007C00612B7
:1002250008CCD006D00775161090000075F000C0F8
:1002350007C006120415D006D007108D030201ABC6
:100245007582CFC007C006120DC1D006D0070EE5D6
:100255000A7011EE24FC500C7E000512E4B5120262
:100265000513D2020FEF248540030201AB7F00C0C6
:1002750007C00612077612078ED006D007E50C6078
:1002850009D50C06750A00750B00E50F7003020110
:10029500AB150FE50F60030201AB750D00750E0080
:1002A5000201ABAF82D293C293D292EF6007D29391
:1002B500C2931F80F6C292D293C29322AE82AF83BD
:1002C5007401B5730280030203847C0074805F4C63
:1002D50024FF9291D293C293EFA2E692049291D217
:1002E50093C293EFA2E592049291D293C293EFA2A7
:1002F500E492049291D293C293EFA2E39204929175
:10030500D293C293EFA2E292049291D293C293EF59
:10031500A2E192049291D293C293EF139204929127
:10032500D293C293EE3392049291D293C293EEA2EA
:10033500E692049291D293C293EEA2E59204929131
:10034500D293C293EEA2E492049291D293C293EE19
:10035500A2E392049291D293C293EEA2E292049206
:1003650091D293C293EEA2E192049291D293C29359
:10037500D292EE1392049291D293C293C292221515
:10038500737D0F8DF005F07B017C008006EB2BFB68
:10039500EC33FCD5F0F7EE5203EF5204EB4C24FF9F
:1003A5009291EDB57302D292D293C2931DED30E7CF
:1003B500D2C292227573010202C17582030202A89C
:1003C500E5822582FF0F0FC0071203E7D0078F7361
:1003D5008514828515830202C11203E775820C021A
:1003E50002A875820E0202A8751470751500758233
:1003F500011203C50203DEAF82E4CF25E0CF33FE51
:1004050074014FF514747E4EF5157582020203C50D
:10041500AD82AE83AFF0AC16EC60368C027B001A71
:10042500BAFF011BEA2DFAEB3EF98F038A82898315
:100435008BF0120F3EFA8A83758200C007C006C092
:1004450005C0041203B9D004D005D006D0071C801E
:10045500C7900096120CA1C2CA1203BF9000961253
:050465000CA1D2CA2227
:1000BA00752D21752E00752F40753000753100752C
:1000CA003208753329753400753540753600753731
:0400DA000075380471
:10046A00C2AC753100753000753700753600C205AB
:10047A00D2ACD2AF22C0E0C0F0C082C083C007C0F5
:10048A0006C005C004C003C002C0D075D000C2B502
:10049A00309843E531FFC39530FEB532028035AC62
:1004AA002DAD2EAE2FEF04F531AA327B00EA24FFE0
:1004BA00F539EB34FFF53A8F037F00E5395203E54E
:1004CA003A5207EB2CFCEF3DFD8C828D838EF0E5D2
:1004DA0099120EADC2981099028041E536FFB537E0
:1004EA00028037AC33AD34AE35EF04F536AA387B2B
:1004FA0000EA24FFF539EB34FFF53A8F037F00E574
:10050A00395203E53A5207EB2CFCEF3DFD8C828D04
:10051A00838EF0120F3EF5998002C205D2B5D0D073
:10052A00D002D003D004D005D006D007D083D08221
:10053A00D0F0D0E03285827385837485F075E5301A
:10054A00FCB53102C322C2ACAA2DAB2EAF2FEC04EC
:10055A00F530AD327E00ED24FFF576EE34FFF57707
:10056A007E00E5765204E5775206EC2AFAEE3BFB6A
:10057A008A828B838FF0120F3E85738285748385FE
:10058A0075F0120EADD2ACD322858273300545E5E3
:10059A0037FEC39536FDB53802C322C2ACAB33ACC5
:1005AA0034AD35EE04F537AA387F00EA24FFF57436
:1005BA00EF34FFF5757F00E5745206E5755207EED4
:1005CA002BFBEF3CFC8B828C838DF0E573120EAD16
:1005DA00D2AC8005D205857399D322C2AC7531009D
:0605EA00753000D2AC22C6
:1000DE0075473B754800754940754A00754B00756C
:1000EE004C08754D43754E00754F40755000755157
:0400FE000075520433
:1005F000C2EC754B00754A00755100755000C2067B
:10060000D2ECD2AF22C0E0C0F0C082C083C007C02D
:1006100006C005C004C003C002C0D075D000C2B37C
:1006200030C043E54BFFC3954AFEB54C028035AC64
:1006300047AD48AE49EF04F54BAA4C7B00EA24FFD6
:10064000F553EB34FFF5548F037F00E5535203E578
:10065000545207EB2CFCEF3DFD8C828D838EF0E530
:10066000C1120EADC2C010C1028041E550FFB551AC
:10067000028037AC4DAD4EAE4FEF04F550AA527B21
:1006800000EA24FFF553EB34FFF5548F037F00E5B8
:10069000535203E5545207EB2CFCEF3DFD8C828D49
:1006A000838EF0120F3EF5C18002C206D2B3D0D0C5
:1006B000D002D003D004D005D006D007D083D0829A
:1006C000D0F0D0E03285827385837485F075E54A79
:1006D000FCB54B02C322C2ECAA47AB48AF49EC04BD
:1006E000F54AAD4C7E00ED24FFF576EE34FFF5774C
:1006F0007E00E5765204E5775206EC2AFAEE3BFBE3
:100700008A828B838FF0120F3E8573828574838576
:1007100075F0120EADD2ECD322858273300645E51A
:1007200051FEC39550FDB55202C322C2ECAB4DAC95
:100730004EAD4FEE04F551AA527F00EA24FFF57446
:10074000EF34FFF5757F00E5745206E5755207EE4C
:100750002BFBEF3CFC8B828C838DF0E573120EAD8E
:10076000D2EC8005D2068573C1D322C2EC754B0052
:10077000754A00D2EC22758202120719740E250DFB
:10078000F5821207197403250EF582020719758286
:1007900001120593740E250AF58212059374032540
:1007A0000BF5821205938510820205937582031260
:1007B0000593851182120593AF138F8212059385DD
:1007C0001282020593AF4AAE4BEFB5060122AC4C44
:1007D0007D001CBCFF011D8F027B00EA5204EB521E
:1007E00005EC2547FCED3548FDAB498C828D838BAC
:1007F000F0120F3EFD8D17EEC39FFFBD013ABF04FF
:100800000050012290001775F0401206C590000AB2
:1008100075F0401206C590000B75F0401206C590A9
:10082000001775F0401206C5E510B5170280058562
:100830001710D203750C0422BD032CBF0400402AFC
:1008400090001775F0401206C590001175F0401227
:1008500006C590001375F0401206C590001275F0A1
:10086000401206C5D2022202076B22AF30AE31EF32
:10087000B5060122AC327D001CBCFF011D8F027B3E
:1008800000EA5204EB5205EC252DFCED352EFDABB4
:100890002F8C828D838BF0120F3EFC8C18EEC39F41
:1008A000FFBC0224BF0300402290001875F04012E4
:1008B000053F90000D75F04012053F90000E75F059
:1008C0004012053F750F04220205E522AE12E51322
:1008D000C313CE13CEFFAC0A7D00740E2CFCE43D96
:1008E000FDAA0D7B00EA2CF582EB3DF583757302C2
:1008F0008B74C007C006120F5AAC82AD83D006D0ED
:10090000078C738D748E828F83120EC8AE82E50AB7
:10091000C313FFEEC39FFFBF0103EF8001E4FEE4BA
:10092000BF020104FDE4BF030104FCE4BF040104B1
:10093000FBE4BF050104FAE4BF060104F97800EF07
:100940007016E86003B80E10E82400F582E4340065
:10095000F58374FFF0020A02EE6018B8010280030A
:10096000B80D10E82400F582E43400F58374FFF03C
:10097000020A02ED6018B802028003B80C10E824E5
:1009800000F582E43400F58374FFF0020A02EC60A3
:1009900017B803028003B80B0FE82400F582E43493
:1009A00000F58374FFF0805AEB6017B804028003EF
:1009B000B80A0FE82400F582E43400F58374FFF0F0
:1009C0008040EA6017B805028003B8090FE82400E8
:1009D000F582E43400F58374FFF08026E96017B8EF
:1009E00006028003B8080FE82400F582E43400F51D
:1009F0008374FFF0800CE82400F582E43400F58372
:100A0000E4F008B81000500302093F22851282E585
:100A100013C4C582C4540F6582C582540FC5826554
:100A200082C582F583AE0B7F0074032EFEE43FFF88
:100A3000AC0E7D00EC2EFEED3FFF8E738F74120E18
:100A4000C8AE82EEC3950BFFBF0103EF8001E4FE49
:100A5000E4BF020104FD7C00EF7029EC6017BC01CB
:100A6000028012BC0202800DBC0C028008BC0D0288
:100A70008003BC0E0FEC2400F582E43400F583748F
:100A8000FFF08054EE6017BC03028003BC0B0FEC38
:100A90002400F582E43400F58374FFF0803AED60C1
:100AA0002BBC04028017BC05028012BC0602800D1C
:100AB000BC08028008BC09028003BC0A0FEC2400B9
:100AC000F582E43400F58374FFF0800CEC2400F52B
:100AD00082E43400F583E4F00CBC10005003020AF9
:100AE0005822C294758205120C5F120C66D29422B1
:100AF000C29475829F120C5F120C66120C66120C67
:100B000066D29422C294758206120C5FD294C2946B
:100B1000758260120C5FD294120AE2E58230E0081E
:100B200090000A120CB780F02285825C85835D8577
:100B3000F05EF55FC29475820B120C5F855D8212C8
:100B40000C5F855E82120C5F855F82120C5F75827E
:100B500000120C5FAD59AE5AAF5B8555608556618A
:100B6000855762855863E560456145624563603538
:100B7000C007C006C005120C66AC82D005D006D0F6
:100B8000078D828E838FF0EC120EADA3AD82AE8303
:100B9000156074FFB5600C1561B561071562B5622B
:100BA00002156380C1D2942285826B85836C85F0A7
:100BB0006DF56EC294758206120C5FD294C2947564
:100BC0008202120C5F856C82120C5F856D82120CA2
:100BD0005F856E82120C5FAD68AE69AF6A85646F27
:100BE000856570856671856772E56F4570457145ED
:100BF0007260358D828E838FF0120F3EFCA3AD8222
:100C0000AE838C82C007C006C005120C5FD005D031
:100C100006D007156F74FFB56F0C1570B57007150A
:100C200071B57102157280C1D294120AE2E5822078
:100C3000E0F822AF8275FC00EF700575FA6080065F
:100C4000BF030375FA6853920F4393B05393BF7574
:100C5000FB022243FC5043FA01E5F875F8FF2285B8
:100C600082F930FBFD2275F9FF30FBFD85F9822208
:100C700075FC8075FA8153920F53930F228582F988
:100C800010FC0280FB2210FC0280FB85F982227599
:100C9000A15575A1AA74F855B94405F5B975A10017
:100CA00022AE82AF83EE4F600D05A105A105A11E06
:100CB000BEFF011F80EF22AE82AF83EE4F60159022
:100CC00003E8C007C006120CA1D006D0071EBEFF65
:100CD000011F80E72243C61022C29FD29EC29DC23E
:100CE000CDC2CC4387807519ADE4F51AF51BF51C10
:100CF00075730AF574F575F576851982851A8385FD
:100D00001BF0E51C120DC5AC828C1D75730AE4F551
:100D100074F575F576851982851A83851BF0E51CB7
:100D2000120E4885821985831A85F01BF51C74FB09
:100D3000251D501574012519F519E4351AF51AE425
:100D4000351BF51BE4351CF51C740F55894420F543
:100D50008943C9A0AF19C3E49FF58DD28ED299D231
:100D60009C2210980280FB85998222858299109995
:100D70000280FB22AF8210990280FB8F992210988B
:100D80000280FB8599822243C62022C2C7D2C5D2E7
:100D9000C475C2EF2210C00280FB85C18222858209
:100DA000C110C10280FB22AF8275A15575A1AAEFC7
:100DB000600543B101800353B1FE75A10075FF00CA
:100DC000228582FF22F9E573457445754576607783
:100DD0007800C308E57620E73BE57325E0F573E589
:100DE0007433F574E57533F575E57633F576E5829C
:100DF0009573E5839574E5F09575E9957650D4C3C0
:100E0000E57613F576E57513F575E57413F574E578
:100E10007313F573E5829573FCE5839574FDE5F036
:100E20009575FEE995764007F98EF08D838C82C327
:100E3000E57613F576E57513F575E57413F574E548
:100E40007313F573D8CEE922FB7A20E4FCFDFEFF94
:100E5000E5822582F582E58333F583E5F033F5F00D
:100E6000EB33FB4017DAE98042E5822582F582E523
:100E70008333F583E5F033F5F0EB33FBEC33FCED36
:100E800033FDEE33FEEF33FFEC9573ED9574EE9585
:100E900075EF95764013EC9573FCED9574FDEE952A
:0D0EA00075FEEF9576FF438201DABEEB226E
:06008A00E478FFF6D8FD4A
:100068007900E94400601B7A00900F96781075A01B
:1000780000E493F2A308B8000205A0D9F4DAF275F7
:02008800A0FFD7
:100EAD0020F71130F6138883A88220F509F6A88360
:100EBD007583002280FEF280F5F022E573457460A3
:100ECD00467A01E57325E0F573E574334012F57448
:100EDD00E5829573E583957440030A80E6C3E57456
:100EED0013F574E57313F573C3E5829573F5F0E5AA
:100EFD008395744005F58385F082C3E57413F5740D
:100F0D00E57313F573DAE1227A10E4FBFCE5822533
:100F1D00E0F582E58333F583EB33FBEC33FCEB95A6
:100F2D0073F5F0EC95744006FCABF0438201DADD0D
:010F3D002291
:100090007800E84400600A790075A000E4F309D80C
:1000A000FC7810E84400600C7901900000E4F0A3B3
:0400B000D8FCD9FAA5
:0F005900E473758177120F92E5826003020056FF
:100F3E0020F71430F6148883A88220F507E6A883DC
:100F4E0075830022E280F7E49322E022C2D5E58386
:100F5E0030E70DD2D5E4C39582F582E49583F5830F
:100F6E00E57430E70DB2D5E4C39573F573E495746B
:100F7E00F574120F1530D50BE4C39582F582E49506
:080F8E0083F583227582002225
:00000001FF
