:0400000002005B326D
:01000B0032C2
:0100130032BA
:01001B0032B2
:0300230002067B57
:01002B0032A2
:01003300329A
:01003B003292
:01004300328A
:01004B003282
:0300530002073170
:1C00B400E4F53DF53EF53FF540F541E4F542F543F544F545F546752300752438DE
:030118000200568C
:0300560002045F42
:20011B0012098C1209D6120A89120A8512067412072AC2CDC2CC43C9C275CAFE75CBFF753B
:20013B00CCFE75CDFF75930F5392F043930FC293C291C2927535007536007537007538001E
:20015B00753900753A00753BFF22756E66756F667570E675713F853E82853F838540F0E5AD
:20017B0041120CFAAC82AD83AEF0FFC004C005C006C00790000075F07A7443120B46AC8243
:20019B00AD83AEF0FFE58124FCF5818C828D838EF0EF120EF4AF827E00E53D7014EE600336
:2001BB00BE0E08EE2425F8A6078006EE2425F876007401B53D16BE01028003BE0D08EE24A3
:2001DB0025F8A6078006EE2425F876007402B53D1ABE02028003BE0C09EE2425F8A6070297
:2001FB00027AEE2425F8760002027A7403B53D1ABE03028003BE0B09EE2425F8A6070202CA
:20021B007AEE2425F8760002027A7404B53D18BE04028003BE0A08EE2425F8A6078040EE03
:20023B002425F8760080387405B53D18BE05028003BE0908EE2425F8A6078023EE2425F8EC
:20025B007600801B7406B53D16BE06028003BE0808EE2425F8A6078006EE2425F876000EC4
:20027B00BE100050030201B4746FC0E07412C0E07483C0E0743AC0E0853E82853F838540AC
:20029B00F0E541120DCD85823E85833F85F040F541E58124FCF581E4C0E0C0E07480C0E016
:2002BB00743FC0E0853E82853F838540F0E541120CAFAF82E58124FCF581EF6014E4F53EF5
:2002DB00F53FF540F541053DE53D24F85003753D0022756E66756F667570E675713F854372
:2002FB00828544838545F0E546120CFAAC82AD83AEF0FFC004C005C006C00790000075F012
:20031B007A7443120B46AC82AD83AEF0FFE58124FCF5818C828D838EF0EF120EF4AF827EE9
:20033B0000E542702AEE6017BE01028012BE0202800DBE0C028008BE0D028003BE0E08EE74
:20035B002425F8A6078054EE2425F87600804C7401B54218BE03028003BE0B08EE2425F885
:20037B00A6078037EE2425F87600802F7402B5422ABE04028017BE05028012BE0602800D0E
:20039B00BE08028008BE09028003BE0A08EE2425F8A6078006EE2425F876000EBE100050A3
:2003BB000302033C746FC0E07412C0E07483C0E0743AC0E08543828544838545F0E54612C3
:2003DB000DCD85824385834485F045F546E58124FCF581E4C0E0C0E07480C0E0743FC0E096
:2003FB008543828544838545F0E546120CAFAF82E58124FCF581EF6014E4F543F544F5457B
:20041B00F5460542E54224FD5003754200227582021207BF74102539F5821207BF7403252D
:20043B0039F5820207BF75820112070974102536F58212070974032536F582120709853B6C
:20045B00820207097F008F3CC00712011B1206107582301207097582311207BFD00720B591
:20047B000A053C7402B53C03753C0020B30FC2AFC007852382852483120059D007E53C70B8
:20049B0009C0071202EDD007800C7401B53C07C007120165D007750A1090002575F040C0E1
:1004BB000712061FD0070FEF24CD50B27F0080AE7E
:2004CB00AF82D293C293D292EF6007D293C2931F80F6C292D293C29322AE82AF837401B561
:2004EB007B0280030205A77C0074805F4C24FF9291D293C293EFA2E692009291D293C29342
:20050B00EFA2E592009291D293C293EFA2E492009291D293C293EFA2E392009291D293C2B7
:20052B0093EFA2E292009291D293C293EFA2E192009291D293C293EF1392009291D293C27C
:20054B0093EE3392009291D293C293EEA2E692009291D293C293EEA2E592009291D293C237
:20056B0093EEA2E492009291D293C293EEA2E392009291D293C293EEA2E292009291D2938C
:20058B00C293EEA2E192009291D293C293D292EE1392009291D293C293C29222157B7D0FB5
:2005AB008DF005F07B017C008006EB2BFBEC33FCD5F0F7EE5203EF5204EB4C24FF9291ED66
:2005CB00B57B02D292D293C2931DED30E7D2C29222757B010204E47582030204CBE5822525
:2005EB0082FF0F0FC00712060AD0078F7B8508828509830204E412060A75820C0204CB7512
:20060B00820E0204CB7508707509007582011205E8020601AD82AE83AFF0AC0AEC60368C40
:20062B00027B001ABAFF011BEA2DFAEB3EF98F038A8289838BF0120ED8FA8A83758200C035
:20064B0007C006C005C0041205DCD004D005D006D0071C80C790009612099EC2CA1205E229
:09066B0090009612099ED2CA22E9
:2000D00075140B751500751640751700751800751904751A0F751B00751C40751D00751E58
:0400F00000751F0474
:20067400C201D2ACD2AF22C022C0E0C0F0C082C083C007C006C005C004C003C002C001C0AF
:2006940000C0D075D00030981185991385135C90001475F04012088EC298109902801B756D
:2006B400601375610075624090001A75F04012090350058513998002C201D0D0D000D0014D
:2006D400D002D003D004D005D006D007D083D082D0F0D0E0D02232AD82AE83AFF0C2AC8DD8
:2006F400608E618F6290001475F0401209039202D2ACA20222AF82D203300113C2AC8F5CC4
:1607140090001A75F04012088E9203D2AC8004D2018F99A203227F
:2000F40075504775510075524075530075540075550475564B755700755840755900755A28
:0401140000755B0413
:20072A00C204D2ECD2AF22C022C0E0C0F0C082C083C007C006C005C004C003C002C001C0B5
:20074A0000C0D075D00030C01185C14F854F5C90005075F04012088EC2C010C102801B7562
:20076A00604F75610075624090005675F0401209035005854FC18002C204D0D0D000D001B7
:20078A00D002D003D004D005D006D007D083D082D0F0D0E0D02232AD82AE83AFF0C2EC8DE1
:2007AA00608E618F6290005075F0401209039205D2ECA20522AF82D206300413C2EC8F5C45
:1607CA0090005675F04012088E9206D2EC8004D2048FC1A206221C
:2007E000AD82AE83AFF074042DFAE43EFB8F048A828B838CF0120ED8FA74032DFDE43EFE62
:200800008D828E838FF0120ED8FDEAC39DF58222AD82AE83AFF074032DFAE43EFB8F048A8A
:20082000828B838CF0120ED8FA74042DFDE43EFE8D828E838FF0120ED8FDEAB50502D322C9
:20084000C322AD82AE83AFF0C007C006C0051207E0AC82D005D006D00774052DFDE43EFEF6
:200860008D828E838FF0120ED8FDECB50502D322C322AD82AE83AFF074052DFDE43EFE8D13
:20088000828E838FF0120ED814557BF5822285825D85835E85F05F1208425002C322855DBE
:2008A00082855E83855FF0120ED8FAA3120ED8FBA3120ED8FC7404255DF8E4355EF9AF5FED
:2008C000888289838FF0120ED8FE04888289838FF0120CDF8E7B855D82855E83855FF0C090
:2008E00004C003C002120872AF82D002D003D004EF2AFAE43BFB8A828B838CF0E55C120C17
:20090000DFD32285826385836485F0651208105002C322AA60AB61AC628563828564838573
:2009200065F0120ED8F566A3120ED8F567A3120ED8F56874032563FDE43564FEAF658D8286
:200940008E838FF0120ED8F9048D828E838FF0120CDF897B8563828564838565F0C004C03E
:2009600003C002120872AF82D002D003D004EF2566FFE43567FEAD688F828E838DF0120EB1
:0C098000D88A828B838CF0120CDFD3220B
:20098C0075A15575A1AA74F855B94405F5B975A10022AE82AF83EE4F600D05A105A105A179
:2009AC001EBEFF011F80EF22AE82AF83EE4F60159003E8C007C00612099ED006D0071EBE41
:2009CC00FF011F80E72243C61022C29FD29EC29DC2CDC2CC438780756911756A04E4F56B7B
:2009EC00F56C757B0AF57CF57DF57E856982856A83856BF0E56C120AC3AC828C6D757B0A27
:200A0C00E4F57CF57DF57E856982856A83856BF0E56C120C1785826985836A85F06BF56C25
:200A2C0074FB256D501574012569F569E4356AF56AE4356BF56BE4356CF56C740F55894492
:200A4C0020F58943C9A0AF69C3E49FF58DD28ED299D29C2210980280FB859982228582997E
:200A6C0010990280FB22AF8210990280FB8F992210980280FB8599822243C62022C2C7D2F4
:200A8C00C5D2C475C2982210C00280FB85C182228582C110C10280FB22AF8275A15575A1DD
:170AAC00AAEF600543B101800353B1FE75A10075FF00228582FF22E7
:200AC300F9E57B457C457D457E60777800C308E57E20E73BE57B25E0F57BE57C33F57CE5F6
:200AE3007D33F57DE57E33F57EE582957BE583957CE5F0957DE9957E50D4C3E57E13F57E25
:200B0300E57D13F57DE57C13F57CE57B13F57BE582957BFCE583957CFDE5F0957DFEE995D7
:200B23007E4007F98EF08D838C82C3E57E13F57EE57D13F57DE57C13F57CE57B13F57BD825
:030B4300CEE922D6
:200B4600120BE9BC0003020E90EF60FA30D502B2D1E583B4FF03020EA6E582B4FF03020E56
:200B6600A6258340072482400B020E902483145003020EA6F582EA8DF0A4A8F0EA8EF0A45F
:200B860028F8E435F0F9EB8DF0A428E935F0F9E433CA8FF0A429F9EA35F0FAEBF88EF0A4BE
:200BA60029F9EA35F0FAE433FBEC8DF0A429F9EA35F0FAE43BFBE88FF0A42AFAEB35F0FB66
:200BC600E433CCFD8EF0A42AFAEB35F0FBE43CFCED8FF0A42BFBEC35F0FC20E703120C7CDB
:030BE600020E6F8D
:200BE900AA82AB83A2F73392D1F5826002D2F7ACF0E58124F9F8E6FD08E6FE0886F008E66F
:0E0C0900A2F73392D5F5836002D2F7AFF02246
:200C1700FB7A20E4FCFDFEFFE5822582F582E58333F583E5F033F5F0EB33FB4017DAE98016
:200C370042E5822582F582E58333F583E5F033F5F0EB33FBEC33FCED33FDEE33FEEF33FF45
:200C5700EC957BED957CEE957DEF957E4013EC957BFCED957CFDEE957DFEEF957EFF438277
:050C770001DABEEB22D2
:06008A00E478FFF6D8FD4A
:200C7C007804EC7011E58224F8500AF582E4C9CACBFCD8EF22EC7820058220E713D5820177
:130C9C0022C3E933F9EA33FAEB33FBEC33FCD8EA15822285
:200068007900E94400601B7A0090137A780075A000E493F2A308B8000205A0D9F4DAF275B2
:02008800A0FFD7
:200CAF00FFA8811818120E44D2D133E6400730E70B7582012220E70675820022C2D1120E51
:100CCF0026E97003F5822230D101B3E433F5822295
:1B0CDF0020F71130F6138883A88220F509F6A8837583002280FEF280F5F02214
:200CFA00AC82AD83AEF0FF856EF0E56F42F0E57042F0E571547F45F0700990000075F080A3
:200D1A00743F22C007C006C005C004E4C0E0C0E07480C0E0743FC0E0856E82856F838570E2
:200D3A00F0E571121049AB82E58124FCF581D004D005D006D007EB60088C828D838EF0EF8B
:200D5A0022C007C006C005C004E4C0E0C0E0C0E0C0E08C828D838EF0EF120CAFE58124FCFF
:200D7A00F581D004D005D006D007E58224FF92074007900000E4F5F0228C828D838EF0EF1D
:200D9A00120EFCAC82AD83AEF0FFC06EC06FC070C0718C828D838EF0EF120B46AC82AD8318
:130DBA00AEF0FFE58124FCF5818C828D838EF0EF02105E92
:200090007800E84400600A790075A000E4F309D8FC7800E84400600C7900900000E4F0A370
:0400B000D8FCD9FAA5
:200DCD00120BE97900E583B58202800D5003120EBEE583C39582121006E5D0C465D020E10F
:200DED0017EA2DFAEB3EFBEC3FFC50097401121006EC4480FC020E6FC3EA9DFAEB9EFBEC9E
:190E0D009FFC500FC3E499F9E49AFAE49BFBE49CFCB2D1120C7C020E6F8F
:200E26007901AA82E68F82B5821318E6B5F00E18E6B5830918E68A82B58202790022B480C3
:200E46000FE5F0700AE5837006E58270027F00EFB6801518B6001018B6000B18B60006082B
:090E6600080876002208080822A1
:02005900E4734E
:200E6F00B98003EA13B34010EA2401FAE43BFBE43CFC50047C800582BC000EBB000BBA00C7
:200E8F0008E4F5F0F583F58222A2D1E582138CF092F78B838A8222E4F583F58275F080F487
:0F0EAF00A2D11322E4F583F58275F0C0747F227F
:1A0EBE00E582C583F582A2D133A2D592D11392D5ECCFFCEBCEFBEACDFA22BC
:0D005B0075817E12105AE582600302005686
:1C0ED80020F71430F6148883A88220F507E6A88375830022E280F7E49322E02229
:080EF4007F861211FCF5822239
:200EFC001211E830D106120EB3020FC4BC0008D2D1120EA6020FC4C08274037900121006C0
:200F1C00E4F572F573F574F575901302F88C078B068A0589F0E8120FC5E925F0EA3DEB3E4A
:200F3C00EC3F54E07028E925F0F9EA3DFAEB3EFBEC3FFCE4932572F5727401933573F573AE
:200F5C007402933574F5747403933575F575A3A3A3A308B81EB7AC75AB74AA73A9727582AC
:200F7C0081D2D1120C7CD0E0B47E05120E87803840062482C2D58005F4247FD2D5F8120EF3
:200F9C00BE741888F0A4F9AAF074B188F0A4FBACF0747288F0A42AFAE5F03BFBE43CFC75A2
:090FBC008286120C7C120DD02279
:200FC50024F850228DF0AD06AE077F0024F850168DF0AD067E0024F8500C8DF07D0024F85C
:200FE500500475F0002224086016C000F8C3EF13FFEE13FEED13FDE5F013F5F0D8EFD00093
:0110050022C8
:20130200FF422E16F691F90CF2FD2307EEE0C4030CA3F001D814FC00A3027F0055C03F000C
:201322000BF01F0001FC0F0000FF0700C0FF0300F0FF0100FCFF0000FF7F00000040000014
:2013420000200000001000000008000000040000000200000001000080000000400000008C
:1813620020000000100000000800000004000000020000000100000034
:201006006040F82582500274FFF582E824F8501ECCCBCAF9E4CC24F85014CBCAF9E4CB24F2
:20102600F8500BCAF9E4CA24F8500379002224086010F8C3EC13FCEB13FBEA13FAE913F9A5
:03104600D8F122BC
:11104900FFA8811818120E44120E26E96401F58222AD
:04105A007582002279
:20105E00A2E79208C2E7F8A2F7332499400B90000075F080743F021198757A00E58224E8A5
:20107E00E583348DE5F034CEE834C0E8505885827685837785F078F579783BC00078AAC03A
:20109E000078B8C000783FC000120B461581158115811581120EF4E582F57A24805006121A
:2010BE000EA6021198780079807A317BBF12119985827685837785F078F579788379807ADC
:2010DE005E7B39121199A2F733D2F7A982AA83ABF07C00B47902800F400724871211D180FC
:2010FE0006F4247A121006E4F576F577F578757920901302F8E493F5F0A3E493FDA3E493B2
:20111E00FEA3E493FFA3C3E995F0EA9DEB9EEC9F4030C3E995F0F9EA9DFAEB9EFBEC9FFC05
:20113E008576F0AD77AE78AF79E8120FC5E57625F0F576E5773DF577E5783EF578E5793FE1
:20115E00F57908B81BAFAC79AB78AA77A976120C7C747F257AF582120E6F30081BC082C06A
:20117E0083C0F0C0E090000075F080743F1212211581158115811581C2E722C000C001C0AD
:20119E0002C003857A821212E4120B461581158115811581C082C083C0F0C0E08576828551
:2011BE0077838578F0E579120DCD1581158115811581226014C000F8C3E933F9EA33FAEB60
:0A11DE0033FBEC33FCD8F1D0002203
:1211E800AA82AB83A2F73392D1F5826002D2F7ACF0220C
:2011FA007F9E1211E830D103020E90C3EF9582500974FFF5F0F583F5822279001210068954
:07121A00828A838BF0EC22B5
:20122100120BE930D502B2D1BF0009BC0003020EB3020EA6BC0003020E90E583B4FF0BE5B3
:2012410082B4FF03020EB3020E90E582B4FF03020EA6C395835007247F400B020E902480BB
:20126100145003020EA6F582C3ED9AEE9BEF9C40111582C3EA33F9EB33FAEC33FBE433FC75
:201281008005E4CCCBCAF9C08275F019C3E99DEA9EEB9FEC9400D5F002802D400EE99DF9AE
:2012A100EA9EFAEB9FFBEC9400FCC3B3E833F8E58233F582E58333F583C3E933F9EA33FA0E
:2012C100EB33FBEC33FC80C4B3E4F938FAE43582FBE43583FCD082500405827C80120C7CE2
:0312E100020E8773
:0B12E400E4AC82FBFAF974860212F8F9
:1312EF00FCABF0AA83A982749EC2D1F582120C7C020E6FC8
:00000001FF
